:020000040800F2
:1000000000040020390200083B0200083A02000800
:100010003A0200083A0200083A0200083A020008D0
:100020003A0200083A0200083A020008F1530008B8
:100030003A0200083A0200083A0200083A020008B0
:100040003A0200083A0200083A0200083A020008A0
:100050003A0200083A020008B15300086153000850
:1000600011530008C15200087152000821500008C5
:10007000E14F0008A14F0008614F0008214F000820
:10008000E14E0008A14E00083A0200083A020008BA
:10009000614700083A0200083A020008815100084E
:1000A0003A0200083A0200083A0200083A02000840
:1000B000214C00083A0200083A020008A14D00084D
:1000C000C14C00083A0200083A0200083A0200084F
:1000D0003A020008814A00083A0200083A02000881
:1000E000615000083A0200083A0200083A0200088B
:1000F0003A0200083A0200083A0200083A020008F0
:100100003A0200083A0200083A0200083A020008DF
:100110003A0200083A0200083A0200083A020008CF
:100120003A0200083A0200083A0200083A020008BF
:100130003A0200083A0200083A0200083A020008AF
:100140003A0200083A0200083A0200083A0200089F
:100150003A0200083A0200083A0200083A0200088F
:1001600072B6274880F30888264880F30988264815
:100170004EF60851CEF200010860022080F3148888
:10018000BFF36F8F09F044FD04F0AAFA4FF0553029
:100190001E491B4A91423CBF41F8040BFAE71C4937
:1001A000184A91423CBF41F8040BFAE719491A4A30
:1001B0001A4B9A423EBF51F8040B42F8040BF8E781
:1001C00000201749174A91423CBF41F8040BFAE757
:1001D00009F0D6FC09F014FD134C144DAC4203DABF
:1001E00054F8041B8847F9E707F0D2FB104C114D77
:1001F000AC4203DA54F8041B8847F9E709F0F8BC6D
:10020000000400200008002000000008000000207A
:1002100000040020D0C6000800080020A00800202C
:10022000A0080020B41C0020600100086001000844
:10023000600100086001000892E7FFE7FEE7C046A2
:100240002DE9F04FC1F80CD0C3689D46BDE8F08F92
:10025000002383F311882846A047002005F0D8F832
:1002600005F0E6F800DFFEE7844641EA000313F0FC
:10027000030349D1403A23D30B6803604B684360C2
:100280008B688360CB68C3600B6903614B69436112
:100290008B698361CB69C3610B6A03624B6A4362FA
:1002A0008B6A8362CB6AC3620B6B03634B6B4363E2
:1002B0008B6B8363CB6BC36340304031403ADBD2FE
:1002C00030320BD30B6803604B6843608B688360EC
:1002D000CB68C36010301031103AF3D20C3205D322
:1002E00051F8043B40F8043B043AF9D2043208D0F8
:1002F000D2071CBF11F8013B00F8013B01D30B886A
:1003000003806046704700BF082A13D38B07B1D023
:1003100010F00303AED0C3F10403D21ADB071CBFF5
:1003200011F8013B00F8013BA4D331F8023B20F85F
:10033000023B9FE7043AD9D3013A11F8013B00F898
:10034000013BF9D20B7803704B7843708B78837044
:100350006046704780EA010C1CF0030F37D110F0A3
:10036000030C20F0030021F0030150F8042B08BF18
:1003700051F8043B0ED08CF0030C6FF07F434FEA32
:10038000CC0C23FA0CFC51F8043B42EA0C0243EA81
:100390000C0300BFA2F1013C9A4201BF2CEA020CFF
:1003A0001CF0803F50F8042B51F8043BF2D04FEA88
:1003B00002604FEA1222012828BFB0EB036F08BF8A
:1003C0001B0AF4D003F0FF03000EC01A704710F0B0
:1003D000030F0AD010F8012B11F8013B012A28BFA6
:1003E0009A42F4D0A2EB030070474DF8045D50F838
:1003F000042B01F0030521F0030151F8043B022D09
:1004000026D04DD822F07F45B5EB132FA2F1013C49
:100410002CEA020C0DD11CF0803C08BF51F8043BC3
:100420000AD185EA0205B5EB036F0CD150F8042B15
:10043000E8E74FEA13235BE03CF07F4C54D10B78A4
:100440004FEA126554E04FEA126503F0FF034FE0F4
:100450004FEA0245A2F1013C4FEA15452CEA020C95
:10046000B5EB134F18D11CF0803C08BF51F8043B8A
:1004700007D185EA0205B5EB034F09D150F8042BEB
:10048000E6E75FEA0C4C2FD10B884FEA12452FE0CC
:100490004FEA03434FEA12454FEA134328E000BFF7
:1004A00002F0FF05B5EB136FA2F1013C2CEA020C40
:1004B0000DD11CF0803C08BF51F8043B0AD185EAFD
:1004C0000205B5EB032F0AD150F8042BE8E74FEAF9
:1004D00013630DE012F0FF0F06D051F8043B4FEA12
:1004E000122523F07F4303E04FF0000020BC70474B
:1004F00005F0FF0203F0FF00012828BF904204BF6F
:100500002D0A1B0AF4D0A2EB000020BC704700BFEC
:10051000202383F31188094B9A6822B1002000231D
:1005200083F311887047064A01209269916B9363A7
:10053000C3E90221002383F311887047400800209B
:10054000D0120020000000000000000000000000A9
:10055000202383F311880023034A9269506B53636D
:1005600083F31188704700BFD01200200000000004
:100570004FF080435B6A091A9BB2181A88420ADB63
:10058000012010B40549064C064B074A207008703C
:100590001A6010BC70470020704700BFB81B0020D5
:1005A000581C0020B41B0020A49F0008000000007D
:1005B00070B4202383F311880D4C4D1E2668431917
:1005C000B018494228440B400840626803449342F3
:1005D00007D89E4205D82360002383F3118870BC9E
:1005E00070470020002383F3118870BC704700BF60
:1005F0006014002000000000000000000000000067
:10060000024AD36843F08003D3607047003801404A
:10061000022906D0032906D00129064818BF002068
:10062000704705487047032A9ABF044800EBC20090
:1006300000207047C0C5000874C5000848C60008FF
:1006400000200B4B0B4AD91D21F00701CB1AC3F137
:10065000780310B4DB0802F10C044B6051600860B1
:10066000C2E9034410609060506110BC704700BF45
:10067000D81B0020BC1B0020000000000000000070
:1006800000220421044BDA609A61C3E900339A60C6
:10069000C3E90411704700BF1C08002000000000DF
:1006A000FFF7EEBF000000000000000000000000A7
:1006B0000020704700000000000000000000000063
:1006C00000210422024B1960D960C3E9012270475E
:1006D000880800200000000000000000000000006A
:1006E000002130B4094B0A4A03F1180402F1100545
:1006F00003F120005D60C3E9064430BC1A60C3E921
:100700000222C3E9080019611975704760080020CA
:10071000E8140020000000000000000000000000BD
:10072000FFF7DEBF00000000000000000000000036
:10073000FFF7D6BF0000000000000000000000002E
:100740000022024B9A60C3E900337047081500206D
:100750000122024B9A60C3E9003370473415002030
:10076000704700BF00000000000000000000000013
:100770000022024B9A60C3E9003370473415002011
:1007800000224FF4A4700421024B1A60DA60C3E91E
:1007900001017047F8140020000000000000000074
:1007A00000200B4B0B4AD91D21F00701CB1AC3F5D2
:1007B000CC6310B4DB0802F10C044B60516008609C
:1007C000C2E9034410609060506110BC704700BFE4
:1007D00048150020CC14002000000000000000009C
:1007E00008B5FFF7B5FE024A024B12601B6008BD58
:1007F000140800201808002000000000000000007D
:10080000FFF7A6BE0000000000000000000000008E
:10081000FFF7F6BF0000000000000000000000002D
:10082000FFF7EEBF00000000000000000000000025
:10083000FFF7E6BF0000000000000000000000001D
:10084000FFF7DEBF00000000000000000000000015
:100850000020064A064B07499060C2E900229860D2
:10086000C3E90033C1E90011704700BF4008002010
:10087000500800200C0800200000000000000000CC
:100880000021044B044A9960C3E90033C2E9002205
:10089000704700BF400800200C0800200000000046
:1008A000FFF7EEBF000000000000000000000000A5
:1008B0000022024B9A60C3E90033704740080020D1
:1008C0000021044A044B9160C2E900229960C3E907
:1008D000003370474008002050080020000000004E
:1008E000FFF7E6BF0000000000000000000000006D
:1008F0000022024B9A60C3E900337047281500209C
:10090000FFF7F6BF0000000000000000000000003C
:10091000FFF7EEBF00000000000000000000000034
:10092000FFF7E6BF0000000000000000000000002C
:100930000122024B9A60C3E900337047281500205A
:100940000022014B1A607047881C00200000000044
:1009500048B9012010B4054A054C064B20701070B0
:10096000196010BC70470020704700BFB81B002002
:10097000581C0020B41B00200000000000000000F4
:100980004FF0804301201946044A10605A6A92B21F
:100990004B6A9BB29A42FBD0704700BF5C1C0020A0
:1009A0000121074A2023116083F3118862B672B6D1
:1009B00083F3118862B6002383F3118862B670470F
:1009C0005C1C00200000000000000000000000008F
:1009D00030B4202500240A4B03F1140053F8042BF3
:1009E0004AB185F3118892F8211041F0040182F890
:1009F000211084F311888342F0D130BC704700BFCE
:100A0000741C002000000000000000000000000036
:100A100020B370B584B06D46114E2C4600E01446EC
:100A20002246A6FB0013DB0803EB8301A0EB410089
:100A300000F13001C9B202F8011B1846002BEED1BB
:100A4000AA4209D9074E01E014F8011D3068036875
:100A50009B689847A542F7D104B070BD704700BFAE
:100A6000CDCCCCCCB01B002000000000000000006A
:100A700028B9044B3021186803689B681847FFF7B2
:100A8000C7BF00BFB01B0020000000000000000036
:100A9000202383F31188064A064913688B4202D249
:100AA000591C18701160002383F31188704700BF30
:100AB000701C0020701C00200000000000000000DE
:100AC0004320FFF7E5BF00BF00000000000000006A
:100AD0004220FFF7DDBF00BF000000000000000063
:100AE0004120FFF7D5BF00BF00000000000000005C
:100AF0000078FFF7CDBF00BF00000000000000003D
:100B0000FFF7F6BF0000000000000000000000003A
:100B100070B5017889B10446094D286803689B685F
:100B2000984714F8011F0029F7D128680222BDE870
:100B30007040036803491B681847014DF5E700BF83
:100B4000B01B002048BA00080000000000000000B0
:100B5000017859B138B50446054D286803689B688B
:100B6000984714F8011F0029F7D138BD704700BF1E
:100B7000B01B00200000000000000000000000008A
:100B8000F0B40D4E0D4F421E35683B4603E013F89E
:100B9000014B844207D19D4212F8010FF7D810B9DA
:100BA0003760F0BC70470120054C064A064B2070A8
:100BB00010701960F0BC7047701C0020601C002091
:100BC000581C0020B81B0020B41B002000000000AF
:100BD000F8B5012307251E4600240D4A0D4F13606A
:100BE00025FA04F3DB0706FA04F20ED557F8243091
:100BF000204625EA020501349847002DF0D1BDE8D2
:100C0000F84005490548FFF7BBBF0134E8E700BFDE
:100C10005C1C002038A3000824B5000838B5000883
:100C200070B54C24074D28682D2103689B689847B0
:100C3000013CF8D128680222BDE8704003680249EF
:100C40001B681847B01B002048BA000800000000CD
:100C500000EB8100C36830B45A69188A13681A4CD3
:100C6000984228BF1846D060236D0D0103F18043E0
:100C700003F5C0439468EA582B44586088B102F1E8
:100C8000005202F54052520001384008131D03EB98
:100C9000800000E0043334F8025B984215601A4685
:100CA000F8D130BC890001F1804101F5B8410B68F1
:100CB00023F4F04323F0400383F0300343F4004374
:100CC00043F080030B607047005C004000000000B0
:100CD00000EB8100C06882691368BBB1408A03449D
:100CE000013BB3FBF0F39381890001F1804101F5F1
:100CF000B8410B6823F4904323F0700383F440530E
:100D000043F4004343F080030B6070470123938159
:100D1000EAE700BF00000000000000000000000043
:100D200000EB8103F0B4DE68336813F0030353D0A3
:100D3000022B5DD9032B4FD14FF4C0632D4A746948
:100D4000126D0F0102F1804202F5C042BD1884B15C
:100D50004FF0000C348AC5F804C0D0F884C00134C8
:100D600024F001046444C0F8844043F0200347F8B1
:100D700002C0B269C2B1748A3E2C04F1FF322ED98E
:100D800042F01F0201321C4E521146EA822292B2F8
:100D9000EA60D0F88420013424F001041444C0F83F
:100DA000844043F40053AA6048F2800047F6700480
:100DB00043EA010222F47842890022F0F00201F1B4
:100DC000804101F5B84102430A600A68234053405C
:100DD00003430B60F0BC70474FF40073AEE742F082
:100DE0000102013202EBD272520202F47C42CFE7DE
:100DF0000023A3E7005C00400080FFFF000000002C
:100E000000214368F0B4DB6880278B420CBF4FF4AD
:100E10001C464FF41E464025054B064C1965596487
:100E2000DF641E64C0F88450C460F0BCFFF778BF74
:100E3000005C0040CCA200080000000000000000A0
:100E400090F86420152A15D8012340F6416193409B
:100E50000B4270B5044625D113F480150BD0C3683E
:100E60009B695B682BB9036F03B19847002384F833
:100E7000643070BD70479B02FBD50B22202380F8A5
:100E8000642083F31188C36802895B6942F0010220
:100E9000028129469D60C3E90055FFF7D9FE85F31D
:100EA000118870BD48F280060D4943680A681D68C4
:100EB00022F4F04222F0400282F0100232430A6033
:100EC0000B6823F4904323F0700383F4805333437F
:100ED0000B600DB10621A847062384F8643070BD6D
:100EE000005C004000000000000000000000000066
:100EF00038B590F864300446152B2AD8DFE803F0A3
:100F00000B29292929290B29292A3A512929292953
:100F1000292929290B0B48F28000304963680A68A7
:100F20001D6822F4F04222F0400282F010020243D7
:100F30000A600B6823F4904323F0700383F480531A
:100F400003430B6015B106212046A847062384F809
:100F5000643038BD90F87B1090F87A30C26E43EA66
:100F600001239A4206D2C3681B8AB2FBF3F503FB46
:100F70001525EDB11422202384F8642083F3118811
:100F80000025E36862899B6942F001026281204684
:100F90009D60C3E900552946FFF79AFE85F3118845
:100FA00038BD036F03B19847002384F8643038BD1F
:100FB000202383F31188C36802895B6942F0010230
:100FC000028129469D60C3E90055FFF741FE85F384
:100FD00011880A2384F8643038BD00BF005C0040EB
:100FE00070B590F86430044613B1002380F8643083
:100FF000C34B04F174021B6D03F1804303F5C0433E
:1010000003EB01139B6803F1005303F540535B00AE
:1010100003F1100019680433834222F8021BF9D14E
:1010200063689B6863B32046984748B3E26E94F8C0
:10103000743094F87B0094F87A1041EA00219142D0
:101040002CBF1146E1661A0600F1A380002973D077
:101050001522202384F8642083F311880025D4E925
:101060001A61E36862899B6942F00102628120464D
:1010700083E862002946FFF72BFE85F3118870BDD7
:1010800094F8743013F0600518461ED048F28000C2
:101090009B4963680A681D6822F4F04222F040020E
:1010A00082F0100202430A600B6823F4904323F09D
:1010B000700383F4805303430B6015B1062120466F
:1010C000A847062384F8643070BD40F2023194F8DA
:1010D000756003F07F0242EA06228A4200F02E8108
:1010E00041D8022A00F0128140F2F780B2F5817FE8
:1010F00000F04481B2F5407F00F09680B2F5807F29
:10110000C4D194F87630012BC0D1B4F87C30A566F8
:1011100023F00203C4E91B55A4F87C300AE0B2F5C1
:10112000C06F80F09080B2F5A06FAFD1754BC4E96D
:101130001A552367030645D40B22202384F8642024
:1011400083F311880025E36822895B6942F001027C
:10115000228120469D60C3E900552946FFF778FDAE
:1011600085F3118870BD40F201618A42D7D9B2F58A
:10117000106F3ED040F602418A4200F0BA80B2F5CC
:10118000006F83D1012204F17F01C4E91B25A16610
:101190004FE7B9B10922202384F8642083F3118832
:1011A0000025D4E91A61E36822895B6942F00102F3
:1011B0002281204683E862002946FFF749FD85F336
:1011C000118870BD1422202384F8642083F31188D1
:1011D0000025E36862899B6942F001026281204632
:1011E0009D60C3E900552946FFF772FD85F311881C
:1011F00070BD94F8763094F87F209A420FD0227810
:10120000042A39D04BB10421626884F87F30217000
:10121000136813B102212046984794F87400002304
:10122000C4E91A33236785E794F87630012B7FF4FD
:101230002DAFB4F87C30A56643F00203C4E91B551A
:10124000A4F87C3076E794F87910626894F87830E6
:10125000566843EA012394F8762094F877102046E4
:10126000B04700283FF412AFD0E900232567C4E956
:101270001A3294F87430DCE6202383F311880122BB
:10128000402648F2800021896389C4E90455C4E9F5
:101290000655C4E9085511401340A56221816381B8
:1012A000C4F88460930003F1804303F5B8431968E0
:1012B00001320143082A19601860F3D1002383F337
:1012C00011880321626884F87F30217013680BB1A4
:1012D0002046984794F8763094E73AB9022104F111
:1012E0007C00C4E91B12A0660A46A2E6012A7FF42C
:1012F000CDAE022200200449C4E91B20A16698E675
:10130000005C004061140008C4C6000894F878101E
:1013100001F00F0011F0800F404951F8201052D118
:1013200011F440513FF4B2AEB1F5805F51D10225C6
:1013300000203B49C4E91B50A1667AE694F8763058
:10134000002B7FF4A3AE94F8782012F00F033FF443
:1013500066AF9B0003F1804303F5B84312F0800FA2
:101360001A684FD122F4904222F0700282F4805227
:1013700042F4004242F080021A6050E794F876305E
:10138000002B7FF483AE94F8782012F00F033FF423
:1013900046AF9B0003F1804303F5B84312F0800F82
:1013A0001A681DD102F44052B2F5405F3FF437AFE6
:1013B0001A6822F4F04222F0400242F4204242F045
:1013C00080021A602BE711F030013FF45FAE102964
:1013D000ADD0022500201349C4E91B50A16628E6C0
:1013E00002F03002302A3FF41AAF1A6822F4F042B9
:1013F00022F0400282F0200242F4004242F08002D9
:101400001A600CE722F4F04222F0400282F010024F
:1014100042F4004242F080021A6000E7005C0040A3
:1014200044A30008B89F000800000000000000006E
:10143000F0B50124002700EB810CDCF80CE0B0F8DB
:1014400008C0DEF814508C4044EA0C040481AA6001
:10145000C5E90037BDE8F040FFF7FABB0000000027
:1014600090F87630426880F87E300649126843F082
:10147000800310B50446CB640AB1012190470323D1
:10148000237010BD005C0040000000000000000060
:10149000704700BF000000000000000000000000D6
:1014A00090F87430024603F06003202B01D0002036
:1014B000704790F87530202BF9D3212B07D80720DF
:1014C0000021074BC2E91B01936601207047222BC4
:1014D000EDD100230120C2E91A331367704700BF22
:1014E000380800200000000000000000000000009C
:1014F0000020704700000000000000000000000015
:101500000020704700000000000000000000000004
:10151000F8B5D0F88C140A681378042B01D0012098
:10152000F8BD037A022BFAD101230C79558903FA0D
:1015300004F42542F3D1D0E90746B44215D0231D67
:10154000EDD0012000244FF48077497902EB810629
:10155000F6688840B669054355811046B360C6E910
:101560000074FFF7B5FB2046F8BD80690028D6D18E
:10157000E5E700BF000000000000000000000000E0
:10158000406BFFF7C5BF00BF000000000000000077
:10159000D0E904239A4204D0184650F8043B0B606B
:1015A0007047C268002AF7D0002070470000000092
:1015B00010B5446B82B0D4F88C24136819780429D0
:1015C00001D002B010BD217A0229FAD1012110798F
:1015D0001A8901FA00F31342F3D101A904F144007E
:1015E000FFF7D6FF0028ECD0D4F88C3402461979E6
:1015F0001868019BFFF71CFFE3E700BF0000000035
:1016000010B5202382B083F311881F4CD4F88C24AA
:1016100013681978042904D0002383F3118802B0D9
:1016200010BD217A0229F7D1012110791A8901FA16
:1016300000F31342F0D1D4E915329342ECD1226D7C
:10164000002AE9D0E26E002AE6D0043AD21AE3D0AA
:101650001A60D4E9171003448B42636528BFA36E58
:10166000226D28BF63650023013A01A9074822655E
:10167000E366FFF78DFFD4F88C34024619791868B9
:10168000019BFFF7D5FEC7E7340B0020780B002045
:10169000202383F311880F4B5B6813F4006302D19E
:1016A00083F311887047EFF309834FF08071A3F142
:1016B000200243F8041C82F30988074A11689269E2
:1016C0008968926891428CBF044A054A43F8082C05
:1016D000704700BF00ED00E0D0120020610200085A
:1016E000640200080000000000000000000000008C
:1016F000F0B40B4D4A1E2F684E427C1E1318214435
:1017000001EA060033406A680344934204D89F42CA
:1017100002D82B60F0BC70470020F0BC704700BFBF
:101720006014002000000000000000000000000025
:1017300008B52022034682F31188006828B10268A8
:101740001A60002383F3118808BDDA68002AF8D0F4
:10175000D3E901019047002383F3118808BD00BF3E
:1017600001212DE9F041042220250020384E394B7B
:10177000394C316085F3118821682360196080F34A
:1017800011886168013A0B44F4D102230425DFF883
:10179000C880324F33604046FFF7CAFF003018BFA1
:1017A00001203946FFF7D4F800283BD1013DF2D1A2
:1017B000032329483360FFF7BBFFB0FA80F02849C4
:1017C0004009FFF7C5F868BB04222027214B32608F
:1017D00003F1100087F311882268236043F8042B7B
:1017E00085F311889842F5D105230425DFF8688038
:1017F0001A4F33604046FFF79BFF003018BF0120AF
:101800003946FFF7A5F868B9013DF3D10623124820
:101810003360FFF78DFFB0FA80F011494009FFF700
:1018200097F808B1BDE8F081072104230D4A0A4862
:1018300031602560C4E90133E260FFF779FFBDE85C
:10184000F041B0FA80F008494009FFF781B800BFC5
:101850005C1C00201815002088080020A0A40008A7
:10186000ACA40008B1060008BCA4000800000000F9
:10187000202383F31188044B00229B69596B084392
:10188000586382F311887047D012002000000000D6
:10189000202383F31188024602E08B4207D01A46C8
:1018A00013688342F9D1002383F3118870470B68D2
:1018B0001360002383F31188704700BF000000000D
:1018C00002202DE9F047DFF8EC90364C8CB0C9F8D7
:1018D00000002460202686F31188012300254FF0A4
:1018E000FF31314A099323680CAF01939369CDE925
:1018F0000A510893019B47F8143D276085F311882E
:1019000086F3118823680DF13008926948F8283D64
:101910000392CDE904050691C4F8008085F311888F
:1019200086F3118820682149001B18BF0120FFF7AA
:101930000FF820B185F311880CB0BDE8F08782461E
:1019400080F31188032339462046C9F80030FFF799
:101950009FFF86F3118820681449001B18BF0120DF
:10196000FEF7F6FF054620B18AF311880CB0BDE8FA
:10197000F08780F31188042341462046C9F80030DF
:10198000FFF786FF86F3118820680949001BB0FA2B
:1019900080F04009FEF7DCFF0028CBD180F31188EE
:1019A000CAE700BF14080020D0120020F8B40008D5
:1019B00004B500085C1C00200000000000000000CE
:1019C000F0B4002102270125836846680469194A9A
:1019D00043F82C6C43F86C4C06684469C06803F803
:1019E000265C03F8271C03F8287C43F8382C124D9A
:1019F00043F8684C43F8400C546943F80C0CA3F1CD
:101A00006C0043F83C0C43F84C5CA3F1480043E9FC
:101A10000511A3F12005A3F11C0143F8306C43F834
:101A2000344C2061506143E90851F0BC43F8181C64
:101A3000704700BFD01200205102000800000000D3
:101A4000202383F3118890F82030072B0ED8DFE88D
:101A500003F0280D0D2408040D08426A9368013331
:101A60009360D0E900231A600268536010B400222A
:101A70004FF0FF3481680D4B446280F820201B68D2
:101A80009A688A42FBD25A680021C0E9003210608D
:101A9000586081F3118810BC70470022436A1A60B5
:101AA000E4E7002383F31188704700BFD0120020C1
:101AB00001460022074B806881F820201B689A6845
:101AC0008242FBD25A680846C1E90032116059606F
:101AD000704700BFD012002000000000000000008E
:101AE000026890420AD010B40346002411681046E0
:101AF00019604B60546210BCFFF7DABF704700BF3B
:101B00000F4B1A7DAAB91A6970B5D3E900618C1B15
:101B1000B2EBA40F10D09D6801322C1D9C60A14235
:101B20002860084898BF9E601A61FFF7D9FF00201F
:101B300070BD6FF0010070474FF0FF3070BD00BF07
:101B40006008002080080020000000000000000065
:101B500038B50F4B1A7DA2B9D3E9004519692A1B84
:101B6000B1EBA20F10D0DA680131043A944288BF79
:101B70002A1FDA60106007481961FFF7B1FF0020E3
:101B800038BD6FF0010038BD4FF0FF3038BD00BFE9
:101B90006008002080080020000000000000000015
:101BA00038B50F4B1A7DA2B91A69AAB1DC685D6815
:101BB000211DA9422468D96028BF1968046002F178
:101BC000FF32084828BFD9601A61FFF789FF00205B
:101BD00038BD6FF0010038BD4FF0FF3038BD00BF99
:101BE00060080020780800200000000000000000CD
:101BF000074B1A689A4209D010B4002411681046A5
:101C00004B601960546210BCFFF752BF704700BFB1
:101C10000C08002000000000000000000000000090
:101C20000346426B90F8200011430A2859630AD0FA
:101C30000B2800D070475A6A8A43FBD1002218460D
:101C40005A62FFF735BF5A6A1142F7D1704700BF99
:101C500070B50468A0420FD006460D46E3682B43DA
:101C6000E36015B12269134203D0D4E90101FFF703
:101C7000D7FF2468A642F1D170BD00BF000000006C
:101C8000113138B550F8214044B3202383F3118833
:101C900004216018FFF7DCFFD4F88C14E36948795D
:101CA0000A68616A02EB8002D26804F10C00926952
:101CB00052681A60A56AA2692B448B42E36128BF6F
:101CC000236B02F1010228BFE361A261FFF708FF65
:101CD0002046FFF71DFC002383F3118838BD00BFA9
:101CE0002DE9F04100EB81039C6A82B0F4B10E460D
:101CF0000546202383F311880821201D05EB860764
:101D0000FFF7A6FFFB6804F144085B691B6803BB8F
:101D1000404601A9FFF73CFC58B10246314628462F
:101D2000019BFFF785FB002383F3118802B0BDE818
:101D3000F081FB685A691268002AF4D01B8A013BC3
:101D40001340F0D1314605F174022846FFF770FBCD
:101D5000E9E7A36D216E226D0B44E16DA3658B4213
:101D600028BFA36E02F1010228BFA3654046226589
:101D7000FFF7B6FE404601A9FFF70AFC0028CCD1C8
:101D8000D7E700BF000000000000000000000000D6
:101D9000124A30B40468C36895698442AB6318D0B2
:101DA0000146E86B4BB11A68934203D092689042A7
:101DB00038BF1046DB68002BF5D1A26B2368A86002
:101DC0000B6020465960C1E90242A16330BCFFF7B5
:101DD0006FBE0023A36030BC704700BFD01200204C
:101DE00083680133002B836000DD704710B4024626
:101DF000002403681968184611604A605C6210BCD0
:101E0000FFF756BE000000000000000000000000C8
:101E100038B5036898420BD004460D461A68184638
:101E2000226054605D62FFF743FE23689C42F5D157
:101E300038BD00BF000000000000000000000000EE
:101E40001F4B30B4DA6982420FD0D0E90021002460
:101E50000A6002681C339A425160C46003D08168F2
:101E600093680B44936030BC704718460024116897
:101E700040F81C1F81424860D4601CD04FF0804461
:101E800095688A68188D53198B60626A121A92B22B
:101E90009342E8D9991A01290BD94FF6FF72934260
:101EA00028BF134630BC4FF0804203449BB25363BB
:101EB0007047931CF6E74FF08043DC60D3E700BF28
:101EC000D012002000000000000000000000000010
:101ED00070B44FF080442E4D646A0129C0E9032399
:101EE000A3B2EA692ED905F11C04A24238D02E8D86
:101EF00094689B1B9BB2591817D31268091B9468EE
:101F0000A14204D91268091B94688C42FAD34FF09D
:101F1000FF345368C0E90023186050608160936803
:101F2000591A91606C6270BC7047A142E8D24FF6BA
:101F3000FF73994294BF7618F6184FF08043B6B2FB
:101F40005E63DDE705F11C018A424FF00201CED14C
:101F50002B85C5E907000C46C0E9002281600BE033
:101F60004FF6FF748C4228BF0C462B85C5E907004D
:101F7000C0E90022A4B281604FF08042002002211B
:101F800023449BB2536370BC1061D160704700BFA3
:101F9000D01200200000000000000000000000003F
:101FA000EFF30583202383F31188704700000000BE
:101FB000C20710B410D5264BD3E9001499423BD088
:101FC0000022096801329942FBD18C4231D0646809
:101FD000013A9C42FBD162BB830712D51C4BDA69E4
:101FE00003F11C04A242196A2AD0002312680133AB
:101FF000A242FBD191421CD04968013BA142FBD1D6
:10200000BBB910F0040012D0114B0020D3E9042119
:102010009A4219D0126901309A42FBD1914208D0FC
:10202000496901389942FBD1003018BF012010BC2A
:102030007047012010BC70479C42CDD00022C6E7FB
:10204000A142DED00023D7E79142E9D1EFE700BFFC
:10205000D01200200000000000000000000000007E
:10206000012070B5234D2024286084F31188FFF7E8
:102070009FFF002383F3118880F00100C0B21E4946
:10208000FEF766FC00B170BD06460220286084F3AE
:102090001188FFF78DFF86F3118880F00100C0B230
:1020A0001649FEF755FC06460028ECD103232B60A9
:1020B00084F311880420FFF77BFF86F3118880F0FA
:1020C0000100C0B20E49FEF743FC06460028DAD1F3
:1020D00004232B6084F311880820FFF769FF86F33F
:1020E0001188BDE8704080F00100C0B20549FEF7DC
:1020F0002FBC00BF5C1C002090B10008A8B10008F4
:10210000CCB10008E8B100080000000000000000A9
:10211000FEE700BF0000000000000000000000001B
:10212000536910B400EB8104E26023B100241C6009
:102130005C609C60DC60936923B100221A605A6085
:102140009A60DA6010BCFEF7EBBD00BF0000000033
:1021500070B5052912D8DFE801F04711124747038F
:10216000202383F311882E4C0121201DFFF770FDE1
:102170000023237584F84C3083F3118870BD064624
:10218000202383F311880025254C264A0121FFF7DF
:10219000C7FF3046244A0221FFF7C2FF236B04F138
:1021A0000C006FF00101C4E90733A561C4E90D55C6
:1021B000FFF72EFED4E9192304F144006FF001016A
:1021C0002265C4E915332575C4E91B55FFF720FEC8
:1021D000201D012184F84C50FFF73AFD2046FFF7FF
:1021E00097F985F3118870BD202383F311880125A9
:1021F0000B4C0221201DFFF72BFD04F10C006FF0AA
:1022000001012575FFF704FE04F144006FF00101A0
:1022100084F84C50FFF7FCFD002383F3118870BD58
:10222000340B0020F0A2000814A3000800000000F6
:1022300038B50D46E8B1044628601149204607F03C
:1022400045FE215C044422290DD00D49204607F0AB
:102250001BFE286018B10023421C2A6003702378FB
:1022600053B1204638BD0134204607F01DFD2860DB
:10227000F0E70C68002CE0D10024204638BD00BFF8
:10228000F8A60008000000000000000000000000A8
:102290000EB42DE9F04F04464FF0000886B00FAFA2
:1022A00057F8046B02973178721C61B1252910D060
:1022B0001646236820469B689847317808F1010844
:1022C000721C0029F2D1404606B0BDE8F04F03B0C1
:1022D000704771784FF000092D2903BFB178B21C07
:1022E00001200020302903BF5178013230252025FC
:1022F000013205E03B78043712F8011B03EB460975
:10230000A1F13003DBB2092B944609EB8906F3D91E
:102310002A29EFD02E294FF0000248D001F0DF0328
:102320004C2B0CF101064ED0A1F14103A1F1440662
:10233000DBB2342E00F21F81DFE816F06F011D01C1
:102340001D011D011D016F011D011D011D011D014B
:102350001D0119011D011D011D011D011D01E700C8
:102360001D011D0178011D011D011D011D011D0122
:102370001D011D011D011D011D018F006F011D01AA
:102380001D011D011D016F011D011D011D011D010B
:102390001D0119011D011D011D016D001D01E70039
:1023A0001D011D0178013B78043703EB46021CF840
:1023B000011B02EB8206A1F13003DBB2092BF4D939
:1023C0002A29F0D0AAE79CF800300BB3A3F144010E
:1023D000342900F2D280DFE801F0E1D0D0D0D0E1A2
:1023E000D0D0D0D0D0CBD0D0D0D0D099D0D0DED01B
:1023F000D0D0D0D0D0D0D0D0D041E1D0D0D0D0E14A
:10240000D0D0D0D0D0CBD0D0D01FD099D0D0DE007B
:102410000B466646DAE76646D7F800A00437BAF1FD
:10242000000F00F007819AF800305546002A40F06E
:102430000881002B00F0158147F6FE72534601E03B
:10244000013A03D413F8011F0029F9D15B1BA9EB52
:102450000309013B009320250BE066463B680DF124
:10246000180A0AF80C3D0023202509F1FF3904372A
:102470000093B9F1000F21DB002840F08880C9F1FA
:102480000003B9F1000F00F081809AF80010226873
:102490002D29926800F0AF809B4601E023689A687E
:1024A0002946204690471BF1010BF7D1009A5B4665
:1024B000002AC844FFF6F7AE994605E0009B002BC2
:1024C000FFF6F1AE4FF00009DDF800B023680BF124
:1024D000FF3B9B681AF8011B20469847BBF1FF3F62
:1024E000F4D1009B08F1010843449846B9F1000F6C
:1024F0003FF4D9AECA46236829469B6820469847D0
:10250000BAF1010AF7D1C844CDE666464FF00A0E8B
:1025100057F8042B0DF1170100E05946B2FBFEFC01
:102520000EFB1C2202F13003392BC8BF02F1370326
:102530006246DBB201F8013C01F1FF3B002AECD11D
:102540000A460DF117010DF10C0AA1EB0B0ED44652
:102550000BEB0E0101E012F8013B8A420CF8013B43
:10256000F9D10EF1FF33A9EB0E09009381E766461E
:102570004FF0080ECCE766460B4600220DF1180A14
:10258000009209F1FF390AF80C3D72E79946009B69
:10259000002B99DAAAE74FF0100EB9E7391D3A6817
:1025A0000F46002A54DB0DF10C0AD6460EF10B0B38
:1025B00059462E4BA3FB02C3DB089C4603EB830367
:1025C000A2EB430362463033DBB201F8013D002A3F
:1025D000EFD1ABEB0102724401E011F8013F0EF8BC
:1025E000013B9645F9D1AEEB0A0E0EF1FF33A9EB94
:1025F0000E0900933DE7302D7FF44EAF2046019346
:102600009047009B2268013B0093019B08F1010861
:1026100092680AF1010A9B4642E7394651F8042BB9
:10262000192B664688BF0F46BBD8B8E766464FF001
:10263000100E6DE70E4DAA46002A3FF4FDAE013A9A
:10264000FCE6002BFBD14FF0FF332025009310E771
:102650002D2352428DF80C300DF10D0E0DF10C0AA8
:10266000A4E74FF0FF332025009305E7CDCCCCCC79
:1026700004A00008000000000000000000000000AE
:10268000002903DD084A0949FFF702BE202383F32E
:1026900011884FF080420023526A83F31188044965
:1026A00092B2FFF7F5BD00BF24A200082CA20008DB
:1026B00038A2000800000000000000000000000038
:1026C000012903D0034A0449FFF7E2BD1268034918
:1026D000FFF7DEBD0CA000082CA200081CA000081B
:1026E000002903DD194A1A49FFF7D2BD10B5044687
:1026F00082B0184A1849FFF7CBFD184A18492046FE
:10270000FFF7C6FD174A18492046FFF7C1FD174AD3
:1027100017492046FFF7BCFD164A17492046FFF728
:10272000B7FD164A16492046FFF7B2FD154A16496D
:102730002046FFF7ADFD154B20460093144A154B7C
:102740001549FFF7A5FD02B010BD00BF24A0000889
:102750002CA200082CA0000834A0000848A0000803
:1027600090A00008A4A00008ACA00008C0A0000829
:10277000CCA00008E0A00008F8A000080CA1000808
:1027800038A100084CA1000860A100089CA1000825
:1027900078A1000874A1000884A1000800000000CE
:1027A000012370B5324D334C33482B60FEF7D0F91E
:1027B0007420FEF72DF92046FEF7AAF902232F48D0
:1027C0002B60FEF7C5F94420FEF722F92046FEF7FC
:1027D0009FF9032304262A482B60FEF7B9F9142039
:1027E000FEF716F92046FEF793F926482E60FEF70D
:1027F000AFF90C20FEF70CF92046FEF789F9052306
:1028000021482B60FEF7A4F91020FEF701F92046BD
:10281000FEF77EF906231D482B60FEF799F9082084
:10282000FEF7F6F82046FEF773F9072318482B60E9
:10283000FEF78EF93046FEF7EBF82046FEF768F912
:10284000082314482B60FEF783F91420FEF7E0F804
:102850002046FEF75DF909230F482B60FEF778F953
:102860002820FEF7D5F82046BDE87040FEF750B9A5
:102870005C1C00203CB800082CB8000844B80008D4
:1028800054B8000864B8000874B8000884B8000898
:1028900094B80008A4B80008B4B80008000000000C
:1028A00038B50125C84BC94CC9481D60FEF750F921
:1028B0001020FEF7ADF82046FEF72AF9C548FEF7CE
:1028C00047F94FF4FA60FEF7A3F82046FEF720F927
:1028D000C148FEF73DF92020FEF79AF82046FEF7A2
:1028E00017F9BE48FEF734F92020FEF791F820468C
:1028F000FEF70EF9BA48FEF72BF90220FEF788F82A
:102900002046FEF705F9B748FEF722F90020FEF74A
:10291000AFF82046FEF7FCF8B348FEF719F900209F
:10292000FEF7A6F82046FEF7F3F8B048FEF710F9D8
:102930000020FEF79DF82046FEF7EAF8AC48FEF7C7
:1029400007F92846FEF764F82046FEF7E1F8A948A3
:10295000FEF7FEF80020FEF78BF82046FEF7D8F8C9
:10296000A548FEF7F5F82846FEF752F82046FEF790
:10297000CFF8A248FEF7ECF82846FEF749F82046C3
:10298000FEF7C6F89E48FEF7E3F82846FEF740F843
:102990002046FEF7BDF89B48FEF7DAF80020FEF768
:1029A00067F82046FEF7B4F89748FEF7D1F82846B6
:1029B000FEF72EF82046FEF7ABF89448FEF7C8F86D
:1029C0000020FEF755F82046FEF7A2F89048FEF7E3
:1029D000BFF82846FEF71CF82046FEF799F88D4808
:1029E000FEF7B6F82846FEF713F82046FEF790F8F3
:1029F0008948FEF7ADF82846FEF70AF82046FEF7AC
:102A000087F88648FEF7A4F82846FEF701F8204626
:102A1000FEF77EF88248FEF79BF82846FDF7F8FFA0
:102A20002046FEF775F87F48FEF792F80020FEF783
:102A30001FF82046FEF76CF87B48FEF789F8284619
:102A4000FDF7E6FF2046FEF763F87848FEF780F8CA
:102A50002846FDF7DDFF2046FEF75AF87448FEF7DA
:102A600077F82846FDF7D4FF2046FEF751F8714865
:102A7000FEF76EF82846FDF7CBFF2046FEF748F834
:102A80006D48FEF765F82846FDF7C2FF2046FEF7C1
:102A90003FF86A48FEF75CF82846FDF7B9FF204684
:102AA000FEF736F86648FEF753F82846FDF7B0FF04
:102AB0002046FEF72DF86348FEF74AF80820FDF798
:102AC000A7FF2046FEF724F85F48FEF741F82846A6
:102AD000FDF79EFF2046FEF71BF85C48FEF738F82E
:102AE0002846FDF795FF2046FEF712F85848FEF7F6
:102AF0002FF82846FDF78CFF2046FEF709F85548C9
:102B0000FEF726F82846FDF783FF2046FEF700F87B
:102B10005148FEF71DF82846FDF77AFF2046FDF7DD
:102B2000F7FF4E48FEF714F80020FDF7A1FF2046FE
:102B3000FDF7EEFF4A48FEF70BF80020FDF798FF7F
:102B40002046FDF7E5FF4748FEF702F80020FDF7B5
:102B50008FFF2046FDF7DCFF4348FDF7F9FF00201B
:102B6000FDF786FF2046FDF7D3FF4048FDF7F0FF55
:102B7000FF20FDF74DFF2046FDF7CAFF3C48FDF75B
:102B8000E7FF8020FDF744FF2046FDF7C1FF3948ED
:102B9000FDF7DEFF0020FDF76BFF2046FDF7B8FFD5
:102BA0003548FDF7D5FF0020FDF762FF2046FDF711
:102BB000AFFF3248FDF7CCFF0020FDF759FF20465C
:102BC000BDE83840FDF7A4BF5C1C00209CBA00089B
:102BD000F0A900081CAA000848AA000874AA000866
:102BE000A0AA0008CCAA0008F8AA000824AB000894
:102BF00050AB00087CAB0008A8AB0008D4AB0008C1
:102C000000AC00082CAC000858AC000884AC0008EC
:102C1000B0AC0008DCAC000808AD000834AD00081A
:102C200060AD00088CAD0008B8AD0008E4AD000848
:102C300010AE00083CAE000868AE000894AE000874
:102C4000C0AE0008ECAE000818AF000844AF0008A2
:102C500070AF00089CAF0008C8AF0008F4AF0008D0
:102C600020B000084CB0000878B00008A4B00008FC
:102C7000D0B00008FCB0000828B1000854B100082A
:102C800038B50125184B19481D60194CFDF740FF58
:102C90001848FDF75DFF2846FDF7BAFE2046FDF710
:102CA00037FF1548FDF754FF1448FDF731FF14486E
:102CB000FDF74EFF0520FDF7ABFE2046FDF728FF90
:102CC0001048FDF745FF0020FDF7D2FE2046FDF736
:102CD0001FFF0D48FDF73CFF0020FDF7C9FE204611
:102CE000BDE83840FDF714BF5C1C0020D0A80008E8
:102CF0009CBA000804A9000830A900082CA000080C
:102D00005CA9000888A90008B4A900080000000018
:102D100001221C4B10B51C481A60FDF719FF1B4817
:102D2000FDF7F6FE1A48FDF713FF1A48FDF7F0FE0F
:102D30001948FDF70DFF1948FDF7EAFE1848FDF7A1
:102D400007FF1848184CFDF7E3FE1848FDF700FF91
:102D50000420FDF75DFE2046FDF7DAFE1448FDF77E
:102D6000F7FE0820FDF754FE2046FDF7D1FE11487E
:102D7000FDF7EEFE0820FDF74BFE2046BDE81040B3
:102D8000FDF7C6BE5C1C00208CA70008A4A00008AC
:102D9000B8A70008C0A00008E4A7000848A00008E1
:102DA00010A80008E0A000089CBA00083CA8000891
:102DB00068A8000894A800080000000000000000B7
:102DC00070B50C68A14212D00D46064602E0246898
:102DD000A5420CD008223146A01806F0D9FF0028E1
:102DE000F5D12CB1636820460133636070BD0024C7
:102DF000204670BD00000000000000000000000040
:102E0000F8B50C680D46A1420646174603D10DE001
:102E10002468A5420AD008223146A01806F0B8FF5F
:102E20000028F5D114B104462046F8BD3846FEF717
:102E30007FFC044648B108223146104406F0F2FFF8
:102E400001222B68C4E900322C602046F8BD00BF87
:102E500070B5202383F31188124A1068946983683F
:102E6000A1688B4203D2002383F3118870BD012631
:102E7000002503685A60136080F82060906184F830
:102E8000205000E01B689A689142FBD95A6821469D
:102E9000C4E9003214605C60FDF7D2F9002383F3CB
:102EA000118870BDD012002000000000000000005A
:102EB00038B50446084DFFF7CBFFFFF7C9FFFFF712
:102EC000C7FFFFF7C5FF2368AA690433236092F8A0
:102ED00021305B07EFD538BDD01200200000000084
:102EE000164B70B49E69856804464162B06885429D
:102EF0000DD8002284F820201B689A689542FBD9DF
:102F00005A68C4E9003214605C6070BC70470021EC
:102F10001A4686F82010126891688842FBD9012071
:102F20005168C6E900210E60566084F820003146E1
:102F300020469C6170BCFDF783B900BFD012002011
:102F4000F8B5202484F31188012400250227C0E964
:102F5000372300F1DC03194EC0F80C31184B194A25
:102F6000C0F8FC30736980F8224100F58074C0F825
:102F70000811C0F83C11A0F82071C0F81821C0F861
:102F8000385100F59472C0F83451C0F81061C0F89F
:102F90001431C0F81C011C6100F59673C0F828219B
:102FA000C0F82C31C0F83031294620467461FFF753
:102FB00097FF85F311882046F8BD00BFD01200208E
:102FC00051020008E49F000800000000000000001B
:102FD00008B5202383F31188064B1868984205D062
:102FE0000268002153601A60FFF77AFF002383F321
:102FF000118808BD0C08002000000000000000003F
:10300000F0B5144D87B0074628460E461446FEF725
:103010008FFBE0B16B68104A034402930097019064
:10302000039605940492202383F311886846FEF7E3
:10303000C7FC0223056480F8213000210446FFF715
:103040004FFF002383F31188204607B0F0BD0446EC
:10305000FAE700BFF8140020010B00080000000090
:1030600008B5202383F3118883680133002B836024
:1030700003DD002383F3118808BD034600680021A7
:1030800002681A605360FFF72BFF002383F3118857
:1030900008BD00BF000000000000000000000000AC
:1030A00030B40125074B99691A6881F8200014682B
:1030B0001046636082F820501C6030BC9A61FDF7B6
:1030C000BFB800BFD01200200000000000000000C8
:1030D0000B4A10B52023946983F31188636B33B9CD
:1030E0004FF0FF330A206362FFF7DAFF636B584249
:1030F000184023EA00036363002383F3118810BDA3
:10310000D0120020000000000000000000000000BD
:10311000094A10B52023946983F31188606B30B994
:103120004FF0FF330A206362FFF7BAFF606B0023A2
:10313000636383F3118810BDD012002000000000EB
:103140000C4A10B52023946983F31188636B03F054
:103150000502052A05D005230B206362FFF7A0FFB7
:10316000636B23F005036363002383F31188052059
:1031700010BD00BFD01200200000000000000000C1
:10318000074A10B52023946983F311880320FFF7C1
:1031900087FF636A002BF9D0002383F3118810BDE9
:1031A000D01200200000000000000000000000001D
:1031B00030B54B1C87B012D005460C4C01A8A36952
:1031C0000B4AFEF785FE2846FFF76AFF049B13B102
:1031D00001A8FEF735FEA369586A07B030BDFFF7B6
:1031E0005FFF024CA369586A07B030BDD0120020BF
:1031F000411A00080000000000000000000000006C
:10320000202383F31188104B99684A1E002A9A6084
:1032100004DB0020002383F31188704780B10B4A40
:1032200010B592695C685362C2E9003401462260BD
:1032300005205A60FFF7BCFF002383F3118810BDFF
:1032400099604FF0FF30E5E728150020D0120020EC
:1032500010B5202383F31188154CA268531E002B50
:10326000A36007DBE068B0B10368E360002383F389
:10327000118810BDC8B10F4B62689B690146C3E954
:1032800000425C62052013606360FFF791FF002835
:10329000E8D00020EAE7A369002BFAD0D4E90401C2
:1032A0009847002383F3118810BDA260DEE700BFBA
:1032B0001C080020D01200200000000000000000C8
:1032C000012208B5064BC8201A60FFF7C1FFBDE810
:1032D0000840B0FA80F003494009FDF739BB00BF50
:1032E0005C1C0020ACA400080000000000000000EE
:1032F000012070B5554D564C2860A269202383F3F8
:103300001188536B33B983F311885249FDF720FBC1
:1033100080B170BD5842184023EA00035363002374
:1033200083F31188B0FA80F04A494009FDF710FB99
:103330000028EED1A369202282F311885A6B002A5B
:103340006FD0586380F311884249FDF701FB0028D4
:10335000DFD1A369202282F311885A6B013264D035
:1033600080F3118801203B49FDF7F2FA0028D0D103
:103370000223A6692B60202383F31188756B4DB956
:103380004FF0FF33642173620A20FFF711FF00281A
:103390004FDB756B6842284025EA00057563002302
:1033A00083F31188B0FA80F040092A49FDF7D0FA7A
:1033B0000028AED1A669202383F31188756B4DB91F
:1033C0004FF0FF33642173620A20FFF7F1FE0028FB
:1033D00033DB756B0023736383F31188B5FA85F0D3
:1033E00040091C49FDF7B4FA0546002891D1A469AB
:1033F000202383F31188636B013308D04FF0FF3330
:10340000642163620B20FFF7D3FE002819DB002341
:10341000636383F311882846BDE870400D49FDF7CA
:1034200097BA82F3118801208EE7586380F31188E0
:1034300099E785F311880120B7E785F3118801200A
:10344000CFE785F311880125E5E700BF5C1C00206C
:10345000D0120020D0B500080000000000000000DD
:1034600061B10246074B10B49B6944680420C3E96C
:1034700000242360536010BCFFF79ABE4FF0FF306A
:10348000704700BFD01200200000000000000000C4
:103490002DE9F04F83B017460193D0F81CA04FF0F0
:1034A000200B8BF31188002A4FD004460E464FF0B4
:1034B00000080DE0BAF1000F01D02046D0470023EC
:1034C00083F31188A8442E448BF3118847451CD9F7
:1034D000A3689F4298BF3D46D4E9043088BFA568E1
:1034E0001B1AAB4229D817D32A463146FCF7BCFE3B
:1034F000E3686361A3685B1BA360002DDAD10199C7
:103500002046FFF7ADFF0028E0D0002383F31188A9
:10351000404603B0BDE8F08F1A463146A5EB0309DB
:103520000093FCF7A1FE009B4A46F118E068FCF707
:103530009BFEE3684B446361DCE72A463146FCF7B7
:1035400093FE63692B446361D4E79046DDE700BFD7
:103550003030FFF79DBF00BF0000000000000000FA
:1035600030304FF0FF33FFF793BF00BF0000000083
:10357000F8B504460F461646202383F3118805E06C
:1035800031462046FFF76CFF002817DBA568002DA9
:10359000F6D06269A368511C013B6161A36017709A
:1035A000D4E904329A4224BFE3686361E3690BB152
:1035B00020469847002080F31188F8BD85F31188D4
:1035C000F8BD00BF00000000000000000000000087
:1035D0003030FFF7CDBF00BF00000000000000004A
:1035E00030304FF0FF32FFF7C3BF00BF00000000D4
:1035F0002DE9F04F83B017460193D0F81CA04FF08F
:10360000200B8BF31188002A4FD004460E464FF052
:1036100000080DE0BAF1000F01D02046D04700238A
:1036200083F31188A8442E448BF3118847451CD995
:10363000A368A1699F4298BF3D46236988BFA568DA
:103640005B1AAB4229D817D32A463046FCF70CFE4A
:10365000E368A361A3685B1BA360002DDAD1019925
:103660002046FFF7FDFE0028E0D0002383F31188F9
:10367000404603B0BDE8F08F1A463046A5EB03097B
:103680000093FCF7F1FD009B4A46F018E168FCF757
:10369000EBFDE3684B44A361DCE72A463046FCF7C8
:1036A000E3FDA3692B44A361D4E79046DDE700BFA7
:1036B0000C30FFF79DBF00BF0000000000000000BD
:1036C0000C304FF0FF33FFF793BF00BF0000000046
:1036D00070B5202304460E4683F3118805E0314679
:1036E0002046FFF7BDFE002818DBA568002DF6D0A8
:1036F000A169A36820694A1C013B8242A36028BFDC
:10370000E368A2610D7828BFA361E3690BB120468D
:103710009847002383F31188284670BD85F31188EC
:1037200070BD00BF000000000000000000000000AD
:103730000C30FFF7CDBF00BF00000000000000000C
:103740000C304FF0FF31FFF7C3BF00BF0000000097
:1037500038B504460D4607E0237A83B9294620464A
:10376000FFF77EFE002809DBE368002BF4D0002081
:103770002369E1691A1D0B44C4E90A2338BD6FF0BF
:10378000010038BD00000000000000000000000043
:103790002DE9F04F994683B005460E461746202383
:1037A00083F311884FF080424FF0000B526AA86AF1
:1037B0004A4493B2D84609F1FF3A0193002841D018
:1037C000EA6AA7EB0B04121A944228BF1446402C55
:1037D00049D906F14002D6F800C07468B168F368B0
:1037E00010369642C0F800C044608160C36000F1AA
:1037F0001000F0D1AA6A0BF1400B4032AA62E96ACC
:10380000914215D8E9692A6904391160EC69A969FE
:1038100022448A422A6128BF6A6AE86828BF2A616E
:103820002A6B0138E860C5F828800AB1284690471D
:1038300088F31188BB4529D2202282F31188A86A17
:103840000028BDD11AF1030F17D84FF08043596AF1
:10385000019B591A89B289451CD32846FFF778FF86
:1038600088B9A86AACE722463146FCF7FDFCAA6A93
:10387000A34422442644AA62C1E749462846FFF7EA
:1038800067FF0028EDD0002282F31188584603B06C
:10389000BDE8F08F80F31188584603B0BDE8F08F83
:1038A0004430FFF775BF00BF0000000000000000BB
:1038B00044304FF0FF33FFF76BBF00BF0000000044
:1038C00070B520230E46044683F31188856A05B33C
:1038D0002E70D4E90A3201339342A36215D3E26910
:1038E0002369043A1A60E268E069013AE260002262
:1038F000A16903448B42236128BF636AA26228BF87
:103900002361236B0BB120469847002080F3118878
:1039100070BD1146FFF71CFF08B9A56AD8E785F30B
:10392000118870BD000000000000000000000000D1
:103930004430FFF7C5BF00BF0000000000000000DA
:1039400044304FF0FF32FFF7BBBF00BF0000000064
:1039500038B504460D4607E0237A83B92946204648
:10396000FFF77EFD002809DBE368002BF4D0002080
:1039700063691A6804331A44C4E90A3238BD6FF027
:10398000010038BD00000000000000000000000041
:103990002DE9F04F994683B004460E461746202382
:1039A00083F311884FF0804300255B6AA16A4B4482
:1039B0009BB2A84609F1FF3A0193002945D0E36A7A
:1039C000A7EB050B5B1A9B4528BF9B46BBF1400F3D
:1039D0004DD9334601F14002D1F800B0D1F804E0EE
:1039E000D1F808C0C86810319142C3F800B0C3F8DC
:1039F00004E0C3F808C0D86003F11003ECD1A36A57
:103A0000403640334035A362E26A9A4213D8D4E983
:103A100006216369E0680B449342636128BF636ACF
:103A200000F1FF3028BF6361236BE060C4F8288099
:103A30000BB12046984788F31188BD422AD2202333
:103A400083F31188A16A0029B9D11AF1030F18D89C
:103A50004FF08043019A5B6AD31A9BB299451DD3FC
:103A600019462046FFF774FF88B9A16AA7E73046D8
:103A70005A46FCF7F9FBA36A5D445B445E44A362CB
:103A8000C2E749462046FFF763FF0028EDD0002338
:103A900083F31188284603B0BDE8F08F81F31188C5
:103AA000284603B0BDE8F08F0000000000000000D1
:103AB0000C30FFF76DBF00BF0000000000000000E9
:103AC0000C304FF0FF33FFF763BF00BF0000000072
:103AD00070B52023044683F31188856AEDB115F88B
:103AE000016BE26AA562954212D3D4E90610E2683E
:103AF0006369013AE260002203448B42636128BF9C
:103B0000636AA26228BF6361236B0BB120469847AA
:103B1000002383F31188304670BDFFF719FF064676
:103B200008B9A56ADBE785F31188F4E70000000017
:103B30000C30FFF7CDBF00BF000000000000000008
:103B40000C304FF0FF31FFF7C3BF00BF0000000093
:103B500008B50146202383F311880820FFF728FBCE
:103B6000002383F3118808BD00000000000000005E
:103B70004FF40056B0460B4B0B4A9B6980B50B4D7A
:103B80000B4F9A613B78C5F81480042B14BF4FF497
:103B90001674C8242046FFF7DBFF20462E61FFF78E
:103BA000D7FFEFE7D0120020089F00080010014067
:103BB000C40F002000000000000000000000000012
:103BC000012370B54FF08045304E642033606C6A3D
:103BD000FFF7BEFFA4B204F1670104F1640089B2EB
:103BE00080B2FCF7C5FC00B170BD022333606C6A83
:103BF000C820A4B2FFF7ACFF04F1CB0104F1C80068
:103C000089B280B2FCF7B4FC0028EDD10323336005
:103C10006C6AC820A4B2FFF79BFF04F1CB0104F14A
:103C2000C80089B280B2FCF7A3FC0028DCD10423D1
:103C300033606C6A4FF4FA60A4B2FFF789FF04F2B4
:103C4000D37104F5FA6089B280B2FCF791FC0028C8
:103C5000CAD1052333606C6A2023A4B204F1640640
:103C6000B6B283F31188696A711A89B211B108205A
:103C7000FFF79EFA002383F3118804F167013046B1
:103C8000BDE8704089B2FCF773BC00BF5C1C00202B
:103C900008B50120FFF75CFF202383F311884FF064
:103CA00080420023506A83F3118880B208BD00BFB0
:103CB0002DE9F84F0123204A00241360FFF7E8FFA5
:103CC000A34681464FF0200A00F5FA681FFA88F8EB
:103CD0001A4F1B4E1B4DA8EB00088AF311880023D6
:103CE0003A4630460121FEF7F3F83A46002342F205
:103CF00010712846FEF7ECF83046FEF7A1F828468A
:103D0000FEF79EF88BF311884FF080435B6A013415
:103D10009BB2A3EB09034345DFDB0223064A0A48B3
:103D20001360FCF715FF6000FCF7A2FEBDE8F84F3A
:103D30000648FCF7EDBE00BF5C1C002061070008D0
:103D40008C1C0020A01C0020C0B70008D0B70008C1
:103D50002DE9F04F88469D4C83B020609C48FCF7CD
:103D6000D7FED8F80030002B00F086812A21994D2B
:103D7000206803689B68984715F8011F0029F7D150
:103D8000D8F80000FCF7C4FE9348FCF7C1FE2A21D6
:103D9000924D206803689B68984715F8011F002919
:103DA000F7D18F48FCF7B4FE2A218E4D20680368B6
:103DB0009B68984715F8011F0029F7D18A48FCF73E
:103DC000A7FE2A21894D206803689B68984715F84B
:103DD000011F0029F7D186480191FCF799FE7C4824
:103DE000FCF796FE0199834B8B461970824ED8F8EA
:103DF000043053F82B304FEA8B07002B00F01A8168
:103E00004C2520683D2103689B689847013DF8D107
:103E100020687A49036802221B6898473D21784D43
:103E2000206803689B68984715F8011F0029F7D19F
:103E30000BF1010B5846FCF71BFE2021714D206849
:103E400003689B68984715F8011F0029F7D1D8F837
:103E50000430DB591D68297839B1206803689B68F4
:103E6000984715F8011F0029F7D16748FCF750FE65
:103E70000025D8F804304FEA8509DA59526852F81B
:103E80002520002AB5D0FCF7CBFE2D21DFF890A12C
:103E9000206803689B6898471AF8011F0029F7D12A
:103EA0005846FCF7E5FD20682E21036801359B6824
:103EB00098472846FCF7DCFD2021DFF848A1206860
:103EC00003689B6898471AF8011F0029F7D1D8F8B2
:103ED0000430DB595B6853F80930D3F800A09AF836
:103EE000001039B1206803689B6898471AF8011FD1
:103EF0000029F7D14448FCF70BFE4FF4C870FFF7D8
:103F000027FE0022D8F80430DFF818A1DB593F491A
:103F10005B68316053F809908AF80020D9F80430C2
:103F200003B19847D9F80C309847D9F8083003B155
:103F300098479AF80030002B44D02D21DFF8E89004
:103F4000206803689B68984719F8011F0029F7D17A
:103F50002F4BDFF8D8901868FCF78AFD20212068E5
:103F600003689B68984719F8011F0029F7D1336847
:103F7000264A934209D99146206819F8011B036823
:103F80009B68984733689945F6D35D21DFF8A09088
:103F9000206803689B68984719F8011F0029F7D12A
:103FA0001C4BD3F8009099F8001039B120680368D1
:103FB0009B68984719F8011F0029F7D11648FCF7AC
:103FC000A7FD56E71548FCF7A3FD52E7B01B0020FC
:103FD0009CBA000878C4000824C5000880C4000802
:103FE00028C5000894C400080CA10008A8C4000853
:103FF0004CA10008B81B0020701C002048BA000823
:10400000BCC40008D0C4000840C50008601C0020E3
:104010005C1C0020B41B002044C5000848C50008F3
:10402000D4C40008581C0020E4C40008FCC40008E4
:1040300000C50008FCF7F4FD1148FCF769FD4621B6
:10404000104D206803689B68984715F8011F0029E8
:10405000F7D10D4B1B783BB90C48FCF759FD0A4BC7
:10406000187803B0BDE8F08F0948FCF751FD064B06
:10407000187803B0BDE8F08F0648FCF749FD83E6E9
:104080009CBA000804C50008B81B002054C50008ED
:104090005CC5000814C50008000000000000000016
:1040A0000149FFF755BE00BFF4B900080000000049
:1040B0000149FFF74DBE00BFDCA60008000000006C
:1040C00038B5202383F311880C4CA269134653F8AA
:1040D0002C0F984209D00D2501680024D1624B6055
:1040E00080F8205084F3118838BD0E20FEF7D8FFE9
:1040F000A269D06A02F12C03EDE700BFD0120020C4
:1041000070B520260025FFF7DBFF446A86F311888F
:104110002146FEF7E5FE85F31188002CF3D170BD32
:104120000E4B10B520229C6982F311886162026BEC
:1041300000F12C01C4E90012146090F820200463FF
:104140000E2A07D00C20FEF7ABFF606A002383F332
:10415000118810BDFDF7ACFCF4E700BFD0120020C1
:104160002DE9F0410746FFF793FD002406464FF086
:10417000804800F5FA65ADB22D1A01213846FFF7E7
:10418000CFFFD8F8243001349BB29B1BAB42F4DB49
:1041900038460021FFF7C4FF2046BDE8F08100BF8C
:1041A00010B504464121FFF7BBFF20464221FFF72F
:1041B000B7FF20464321FFF7B3FF2046BDE810407C
:1041C0004421FFF7ADBF00BF000000000000000069
:1041D000F8B5384A83689569002B40D0A9689A6879
:1041E0000446914207D993F820209960062A3BD0D3
:1041F000072A15D042B32646234603E09968AA68E9
:1042000091422AD31B689C42F8D173680620C5E905
:1042100000631D6075606C62BDE8F840FEF740BF4A
:104220001F6858685E6A07601F683246786002E05F
:104230009068884234D312689642F9D17268C3E913
:10424000006213607360D6E7D3E90012116018466C
:104250001B685A60FDF72CFCCDE71E46D5E7AB6B1B
:10426000C0E90253A863F8BD1F6858685E6A07601A
:104270001F68B4463246786002E09068884216D3E0
:1042800012689642F9D1DCF80420A968C3E900C29B
:104290001360CCF80430B3689A688A42A3D3AAE7C3
:1042A00016467268C3E9006213607360A3E7944620
:1042B000E9E700BFD012002000000000000000006D
:1042C00008B5202383F31188FFF782FF002383F3CF
:1042D000118808BD00000000000000000000000080
:1042E000202383F311888368013B002B836004DB68
:1042F0000020002383F311887047034610B5084C53
:104300000520A26953625968C2E900310A605A6007
:10431000FEF7C6FEA369586A002383F3118810BD17
:10432000D01200200000000000000000000000008B
:104330002DE9F8430123DFF884900025C9F8003007
:10434000FFF7A6FC4FF08048074600F5FA66B6B2C4
:10435000174C361A2046FFF7C3FF2046FEF780FEB3
:104360002046FFF7BDFF2046FEF77AFE2046FFF706
:10437000B7FF2046FEF774FE2046FFF7B1FF204648
:10438000FEF76EFED8F8243001359BB2DB1BB3423A
:10439000E0DB02230748C9F80030FCF7D9FBA8008E
:1043A000FCF766FBBDE8F8430348FCF7B1BB00BF70
:1043B00034150020C0B70008ECB700085C1C0020D2
:1043C00038B5084CA36993F821305A0708D4064D34
:1043D0002846FFF785FFA36993F821305B07F7D5DF
:1043E00038BD00BFD01200203415002000000000AE
:1043F00010B5044C2046FFF773FF2046BDE810407F
:10440000FEF72EBE2815002000000000000000006E
:1044100010B504460348FFF763FF2078BDE810405D
:10442000FCF736BB2815002000000000000000004B
:1044300038B5104B9C69A36A04F12805AB42606251
:1044400007D01A681846A262FDF732FBA36AAB4296
:10445000F7D194F8223043B994F821309B0704D166
:10446000D4E904231A61226953610F20BDE8384062
:10447000FEF716BED0120020000000000000000071
:104480002DE9F04F81460768D9F804309BB0754993
:1044900038460193FDF7FCFE38467349FDF7F8FEF8
:1044A000DFF8F8A1DFF8BCB10AAE34465146384611
:1044B000FDF7EEFED9F800502B685B6801220DF184
:1044C0000F012846984700286DD09DF80F10042949
:1044D00065D008290DF1670212D07F2910D00D296F
:1044E00022D01F292B68E8D99442E6D29B6828463F
:1044F00098479DF80F30013404F8013C2B68DCE745
:10450000B4422B68D9D09B680821284698472B686D
:1045100020219B68284698472B6808219B682846DD
:104520009847013C2B68C8E74FF0000828465946D9
:10453000FDF7AEFE84F8008004A93046FDF778FE52
:10454000444604A98046002005ADFDF771FE50B138
:10455000042C1DD045F8040B04A900200134FDF7FC
:1045600067FE0028F4D11AAB03EB840343F8540C24
:10457000B8F1000F99D03D494046FBF7EBFE00280B
:1045800047D12CB3394A3A493846FDF781FE8CE7CA
:1045900038493846FDF77CFE0023099385E7284615
:1045A0003549FDF775FE2F493846FDF771FE38464F
:1045B0003249FDF76DFE202383F311880021304836
:1045C000FDF746FB0020FFF733FF1BB0BDE8F08F7F
:1045D0002C493846FDF75CFE2B4C2C4A2C4D2946C5
:1045E0003846FDF755FE54F8082F002AF7D1019CF4
:1045F00054B1226842B1264D29463846FDF748FE9F
:1046000054F8082F002AF7D159463846FDF740FEE6
:104610004BE71D4D1D4802E055F8080F50B14146CB
:10462000FBF798FE0028F7D16B6805AA21463846AB
:1046300098473AE7019D5DB1286818B908E055F838
:10464000080F28B14146FBF785FE0028F7D1EBE7BC
:10465000424610493846FDF71BFE0F493846FDF724
:1046600017FE22E748BA000838BA000878BA0008EE
:104670002CA2000860BA000854BA000858BA000812
:104680004015002080BA0008A0BA000830BA00081F
:1046900090BA000894BA000898BA00084CBA00080A
:1046A000002903DD084A0949FDF7F2BD08B52023BA
:1046B00083F3118806480021FDF7CAFABDE80840D7
:1046C0000020FFF7B5BE00BF30BA00082CA20008DA
:1046D0004015002000000000000000000000000065
:1046E0001B4B1A46196841F00101196013689807BD
:1046F000FCD500201368164903F0F90313605060DD
:104700004B6813F00C0FFBD10B68114A43F4803354
:104710000B6013689903FCD553680D4943F4E81303
:104720005360136843F0807313600B689B01FCD5E2
:104730001222084B084848601A604B68044A43F04C
:1047400002034B60536803F00C03082BFAD1704747
:10475000001002400020024000641D000000000024
:104760002DE9F04FC24B85B05C6C670500F1AC8061
:10477000260500F1CF80E50408D5BD4B9A6C1004E6
:1047800040F14F816FF48052B94B5A64A1050BD5AB
:10479000DFF8E0A2DAF80430DB680BB15046984746
:1047A0006FF40072B24B5A64230479D5DFF8C4A2C7
:1047B000DFF8BCB204F00F04A50005F1804505F553
:1047C000B845D5F80080A61C0AEB860318F0800FC8
:1047D0005F684CD0D7F814C02A68DCF80430DCF8E5
:1047E0000C10DCF8000022F478420B4422F0F002B6
:1047F00042F40042C01A2A60CCF8043055D03B8AFB
:104800004FEA041E984228BF1846CCF80C00DBF88B
:104810005020DCF8083002F1804909F5C0495EF803
:104820000920194402F10052CE4402F54052CCF85E
:1048300008105200CEF8040068B101384008131D7A
:1048400003EB8000844600E0043331F8020B63453B
:1048500010601A46F8D12B6823F4F04323F040038C
:1048600083F0300343F4004343F080032B6018F4DB
:10487000004F11D02B6818F4006F23F4784323F015
:10488000F00343F08003E1B22B605ED00AEB8606B2
:10489000736878485B689847DBF84440220489D401
:1048A00005B0BDE8F04FFCF7F3BE0121BAF80830BF
:1048B000A140BA6823EA0103AAF80830002AD6D03A
:1048C00021466C489047D2E76FF4806100250222B0
:1048D000DFF8A0A1596450468AF80020CAF87C503D
:1048E000CAE90255CAE90455CAE90655CAE9085594
:1048F000CAF828508AF86450FCF782FADAF80430D3
:104900001B68002B3FF434AF2946504698472605D4
:104910007FF531AF6FF400600521554BDFF854A1EE
:104920001A6C42F008021A6458649AF80020DAF807
:1049300004308AF880208AF800101B68002B3FF4AE
:104940001AAF50460421984715E7DBF85030D7F8E6
:1049500018E003F1804303F5C04303EB04139A68A6
:10496000D86802F10053C0F30909029003F54053DF
:10497000DEF808005B00B9F1010F1A4600930190C0
:1049800072D9A9F102035B0802F10408039308EB52
:104990008308831C106804324FEA102C904503F8FA
:1049A000020C03F801CC03F10203F3D1039B009A3C
:1049B000013302EB83020092019A02EB430301935D
:1049C000029B03F001031BB1009B019A1B6813704B
:1049D000BEF80C30B7F812C05F1EDEF80030DEE91A
:1049E0000102BFB24A444844A3EB0903CC45AEF8E8
:1049F0000C70CEE90102CEF8003026D901220AEB74
:104A000086067068BAF80A3002FA04F4C56823EA28
:104A10000404AAF80A40002D3FF43EAF1548A84709
:104A20003AE71A6CDFF84CA022F008021A649AF8F0
:104A30008020DAF804308AF800201B68002B3FF44D
:104A4000A1AE5046052198479CE6002FD6D02B6892
:104A500023F4904323F0700383F4405343F4004362
:104A600043F080032B6017E74B46002BACD1AFE738
:104A7000005C0040C40F00200000000000000000A7
:104A80002DE9F047624DD5F85462D6F80C803368B2
:104A9000DA059CB277D4202383F3118814F02F0F0A
:104AA00045D05C4F07F1080908E0A006D6F804A03D
:104AB0001ED43468A4B214F02F0F38D02307F4D0DA
:104AC00014F0080F0CBF00218021E00748BF41F01F
:104AD0002001A20748BF41F04001630748BF41F4ED
:104AE00080713846FDF7B4F8A006D6F804A0E0D5EA
:104AF0006B6995F85842ABB3D5E90832934239D087
:104B00006A69591C013204EA0A0A6A61296283F857
:104B100000A0D5E907329A4201D3AB692B6248461F
:104B2000FCF7DEFF3468A4B214F02F0FC6D10023C7
:104B300083F3118818F0800F01D0220632D418F0C8
:104B4000400F0BD0630609D5202383F31188D5E9E4
:104B500011239A4240D0002383F31188BDE8F04727
:104B6000FCF796BD04213846FDF772F8D5E9083206
:104B70009342C5D16A69002AC2D04FF48061384699
:104B8000FDF766F895E7202383F311884FF4007151
:104B9000281DFDF75DF86FF480720023326083F307
:104BA000118878E7202383F31188D5E911239A42ED
:104BB0001FD0AA6B286C591C0132AA63A9648142D8
:104BC0001F7801D3EB6BAB641348FCF789FF776068
:104BD000002383F31188B2E7AB6B002BBBD010210D
:104BE0000C48FDF735F84FF6BF7308EA0303F3608E
:104BF000B1E7AA6B002ADCD008210648FDF728F8A7
:104C00004FF63F7308EA030343F04003F360DFE726
:104C1000D8080020DC08002008090020000000005F
:104C20002DE9F8434FF0804633699B0703D4BDE874
:104C3000F843FCF72DBD00232022336182F3118855
:104C40001E4C9846A14659F81C3F9A68706A218DFF
:104C500080B2471ABFB297421BD32025186811446F
:104C600048452185A7EB0207C0F80490DA68E061A7
:104C7000C3F80C8008BFC6F80C8088F31188186947
:104C8000904785F31188E3699A689742DED3218DB6
:104C9000E4E7E2694A450AD091682085CF1B976016
:104CA0001B89022B2CBFC018023080B27063002316
:104CB00083F31188BDE8F843FCF7EABCD01200206A
:104CC000344AF8B5D2E90C6460690E2300F45F4100
:104CD000C943776861613D68D16A25F00F053D6081
:104CE000357C376803FA05F54E687D6035680F68D6
:104CF00025F00F0535600D7C81B2AB407B6011F46F
:104D000080731BBF01252B46936095608F0544BFC0
:104D100043F0020393604E050AD5656843F004032F
:104D200025F400756560256845F40075256093607D
:104D30000D0544BF43F0080393604C0444BF43F0A7
:104D400020039360C90400B217D543F01003002874
:104D500093601ADB202383F31188D06930B16FF0A0
:104D6000010100234162D361FCF7A2FE002383F31B
:104D70001188BDE8F840FCF78BBC002805DB002B50
:104D8000E8D1BDE8F840FCF783BC43F040039360F2
:104D9000E0E700BFA00800200000000000000000C5
:104DA0003B4A38B5546B3B49A369656945EA0343FF
:104DB00023F07F438B4250D022D807398B4240D01A
:104DC00001318B4214D1D36A62685B6822F40072AD
:104DD00062601A6842F001021A60626842F480520E
:104DE00062605B68012B03D8236823F4806323602F
:104DF00015F00A0F18BFA369BDE83840FCF748BC9E
:104E000025498B4212D002318B42F1D1D36A5B68C3
:104E10005B683BB32368118C43F4A06341F001014C
:104E200011842360BDE83840FCF732BC6368126B24
:104E300023F4007352686360136843F00103136046
:104E4000D6E7138C1A0A0BD003F0010343F0F003EA
:104E500002F0060213432361CAE7138CC3F347032E
:104E60002361C5E76168202021F400716160216839
:104E700041F40071216080F31188D06918B1436258
:104E8000D361FCF715FE002383F31188B0E700BF60
:104E9000A0080020080003008200070000000000B6
:104EA0000B4B0C4A19681268090E01F00E010A42F8
:104EB0000BD0094810B5046B0A065A600CB1406B60
:104EC000A047BDE81040FCF7E3BBFCF7E1BB00BF27
:104ED0000000024080000240981200200000000004
:104EE0000B4B0C4A19681268090D01F00E010A42B9
:104EF0000BD0094810B5846A0A055A600CB1C06A23
:104F0000A047BDE81040FCF7C3BBFCF7C1BB00BF26
:104F1000000002406C0002409812002000000000D7
:104F20000B4B0C4A19681268090C01F00E010A4279
:104F30000BD0094810B5046A0A045A600CB1406AE3
:104F4000A047BDE81040FCF7A3BBFCF7A1BB00BF26
:104F500000000240580002409812002000000000AB
:104F60000B4B0C4A19681268090B01F00E010A423A
:104F70000BD0094810B584690A035A600CB1C069A6
:104F8000A047BDE81040FCF783BBFCF781BB00BF26
:104F9000000002404400024098120020000000007F
:104FA0000B4B0C4A19681268090A01F00E010A42FB
:104FB0000BD0094810B504690A025A600CB1406967
:104FC000A047BDE81040FCF763BBFCF761BB00BF26
:104FD0000000024030000240981200200000000053
:104FE0000B4B0C4A19681268090901F00E010A42BC
:104FF0000BD0094810B584680A015A600CB1C0682A
:10500000A047BDE81040FCF743BBFCF741BB00BF25
:10501000000002401C000240981200200000000026
:1050200008B5094B094A1968126801F00E010A42D5
:1050300005D0074A596013680BB150689847BDE81E
:105040000840FCF725BB00BF0000024008000240FA
:105050009812002000000000000000000000000086
:105060003E4B10B55A691C68144004F47C425A61E6
:10507000620510D53A4AD2F8A83013B1D2F8AC0084
:105080009847202383F3118800213648FCF7C0FE9F
:10509000002383F31188230510D5314AD2F8B830A4
:1050A00013B1D2F8BC009847202383F31188002164
:1050B0002D48FCF7ADFE002383F31188E00410D5E2
:1050C000274AD2F8C83013B1D2F8CC009847202331
:1050D00083F3118800212548FCF79AFE002383F30F
:1050E0001188A10410D51E4AD2F8D83013B1D2F8D5
:1050F000DC009847202383F3118800211C48FCF72B
:1051000087FE002383F31188620410D5144AD2F875
:10511000E83013B1D2F8EC009847202383F31188CC
:1051200000211448FCF774FE002383F31188230444
:1051300010D50B4AD2F8F83013B1D2F8FC009847DA
:10514000202383F3118800210B48FCF761FE002324
:1051500083F31188BDE81040FCF79ABA00040140BF
:105160009811002038120020481200205812002008
:105170006812002078120020881200200000000031
:10518000324B10B55A691C68144004F478725A61A5
:10519000A3060ED52E4A936D0BB1D06D98472023F0
:1051A00083F3118800212B48FCF732FE002383F3A0
:1051B000118860060ED5264A936E0BB1D06E9847C3
:1051C000202383F3118800212348FCF721FE0023CC
:1051D00083F3118821060ED51D4A936F0BB1D06F52
:1051E0009847202383F3118800211C48FCF710FE08
:1051F000002383F31188E20510D5154AD2F88830D0
:1052000013B1D2F88C009847202383F31188002132
:105210001348FCF7FDFD002383F31188A30510D587
:105220000B4AD2F8983013B1D2F89C00984720234B
:1052300083F3118800210B48FCF7EAFD002383F378
:105240001188BDE81040FCF723BA00BF00040140FC
:1052500098110020E8110020F81100200812002009
:10526000181200202812002000000000000000009A
:105270000D4A08B5516913680B4003F010035361E0
:1052800073B10A4A936C0BB1D06C9847202383F317
:10529000118800210648FCF7BBFD002383F3118829
:1052A000BDE80840FCF7F4B9000401409811002063
:1052B000D8110020000000000000000000000000E5
:1052C0000D4A08B5516913680B4003F00803536198
:1052D00073B10A4A936B0BB1D06B9847202383F3C9
:1052E000118800210648FCF793FD002383F3118801
:1052F000BDE80840FCF7CCB900040140981100203B
:10530000C8110020000000000000000000000000A4
:105310000D4A08B5516913680B4003F0040353614B
:1053200073B10A4A936A0BB1D06A9847202383F37A
:10533000118800210648FCF76BFD002383F31188D8
:10534000BDE80840FCF7A4B9000401409811002012
:10535000B811002000000000000000000000000064
:105360000D4A08B5516913680B4003F002035361FD
:1053700073B10A4A93690BB1D0699847202383F32C
:10538000118800210648FCF743FD002383F31188B0
:10539000BDE80840FCF77CB90004014098110020EA
:1053A000A811002000000000000000000000000024
:1053B0000D4A08B5516913680B4003F001035361AE
:1053C00073B10A4A93680BB1D0689847202383F3DE
:1053D000118800210548FCF71BFD002383F3118889
:1053E000BDE80840FCF754B90004014098110020C2
:1053F000EFF30983203383F30988002383F31188B3
:10540000704700BF00000000000000000000000026
:10541000202383F31188FFF70BB800BF00000000C2
:10542000FFF7F6BF000000000000000000000000D1
:10543000012130B400250D4A1068946903685A6050
:1054400080F82010A1681360906184F8205000E07B
:105450001B689A689142FBD35A682146C4E900321E
:1054600014605C6030BCFAF7EBBE00BFD0120020C5
:10547000044B1A689B6992689B689A4200D87047EF
:10548000FFF7D6BFD012002000000000000000008F
:1054900038B5202383F31188154CA3680133002B02
:1054A000A3601ADD013B002BA36006DBFFF7E0FFE2
:1054B0000020002383F3118838BD0E4A6368956984
:1054C0000520C5E900431D606C626560FDF7E8FDDD
:1054D000686A002383F3118838BD206803685C6024
:1054E0002360FCF7E5FA0022A3684262DAE700BF16
:1054F00028150020D012002000000000000000004D
:1055000038B501241D4B1E4D9A691E489168002331
:1055100021441D4A2C60FDF713FD02231B4A1C4C3D
:1055200010602B60FFF7B4FF20681A49001BB0FA27
:1055300080F04009FBF70CFA00B138BDA0681649AD
:10554000B0FA80F04009FBF703FA0028F5D10323F5
:105550002B60FFF79DFF20680E49001BB0FA80F01A
:105560004009FBF7F5F90028E7D1A0680A49B0FA2D
:1055700080F0BDE838404009FBF7EAB9D0120020BE
:105580005C1C002048150020F1430008741C00201A
:1055900028150020B4B30008C4B3000800000000C0
:1055A00038B5202383F31188012200250B4C6FF0BE
:1055B0000101236804F118002275C4E90233256152
:1055C000FCF726FC04F120006FF00101FCF720FC41
:1055D000FFF74EFF85F3118838BD00BF600800203B
:1055E000FFF7DEBF00000000000000000000000028
:1055F000FFF7F6BF00000000000000000000000000
:10560000FFF7EEBF000000000000000000000000F7
:10561000F8B507460E46202383F31188154C04F194
:1056200018050BE02369D4E90012501AB3EBA00F60
:105630000DD131462846FDF713FF20B9237D002BFD
:10564000F0D06FF00100002383F31188F8BDA56846
:105650000133281DA06082422F60074898BFA160D7
:105660002361FCF73DFAFFF703FF0020002383F3DB
:105670001188F8BD600800208008002000000000AC
:10568000F8B507460E46202383F31188154C04F124
:1056900018050BE02369D4E90021881AB3EBA00FA9
:1056A0000DD131462846FDF7DBFE20B9237D002BC6
:1056B000F0D06FF00100002383F31188F8BDE0689B
:1056C00001330438824288BF081FE0600760064843
:1056D0002361FCF705FAFFF7CBFE0020002383F3DC
:1056E0001188F8BD6008002080080020000000003C
:1056F000F8B507460E46202383F31188154CE518AC
:1057000006E023696BB931462846FDF7A9FE20B9AA
:10571000237D002BF5D06FF00100002383F3118867
:10572000F8BDE16860680A1D82420968E26028BF2E
:105730002268396003F1FF33074828BFE260236124
:10574000FCF7CEF9FFF794FE0020002383F31188C5
:10575000F8BD00BF600800207808002000000000AD
:10576000012370B54224404E404D82B033604FF06B
:10577000FF312046FFF74CFFB0FA80F02946400980
:10578000FBF7E6F8013488B9462CF0D10223012159
:1057900058203360FFF73CFFA0F1FF30B0FA80F0F3
:1057A00032494009FBF7D4F8044608B102B070BD95
:1057B000202585F311885820FCF7A2F984F311887D
:1057C000A0F1FF30B0FA80F028494009FBF7C0F89B
:1057D0000028EBD101215820FFF752FFA0F1FF3044
:1057E000B0FA80F021494009FBF7B2F804460028DE
:1057F000DCD185F311885820FCF7AAF984F31188CD
:10580000A0F1FF30B0FA80F018494009FBF7A0F88A
:1058100004460028CAD103233360FFF7C1FE0422E7
:10582000134B0DEB02001C7501213260FFF760FF86
:10583000A0F1FF30B0FA80F00C494009FBF788F87E
:1058400004460028B2D185F3118801A8FCF7A8F915
:1058500084F31188A0F1FF30B0FA80F003494009C9
:10586000FBF776F8A2E700BF5C1C002078A40008D4
:1058700060080020000000000000000000000000A0
:105880002DE9F0474FF00108AE4F82B02026C7F84F
:10589000008086F31188AC4CAC492069D4E9002320
:1058A0009B1AC0EBA300A0F10400B0FA80F04009FD
:1058B000FBF74EF828B1002383F3118802B0BDE84E
:1058C000F087054680F3118802233B6086F3118838
:1058D000236804F118006FF00101C4E90233256167
:1058E00084F81480FCF794FA04F120006FF00101B1
:1058F000FCF78EFA85F3118886F31188D4E900232A
:1059000020699B1AC0EBA300A0F10400B0FA80F05C
:105910008F494009FBF71CF8804620B185F31188B8
:1059200002B0BDE8F08780F3118886F31188206902
:105930008849B0FA80F04009FBF70AF8054610B133
:1059400088F31188BAE780F3118886F311882068FC
:10595000A3688149C01AB0FA80F04009FAF7F8FF4D
:1059600080460028DAD180F3118886F311882068F8
:10597000E3687A49C01AB0FA80F04009FAF7E8FF04
:105980000028DDD180F31188032381464225DFF80A
:10599000D0A120753B6086F311882846FCF7B0F84B
:1059A00089F31188B0FA80F051464009FAF7D0FF28
:1059B00001358046002881D1452DECD186F3118830
:1059C0004120FCF7C5F888F31188B0FA80F06449EB
:1059D0004009FAF7BDFF054600287FF46FAF4FF08E
:1059E0000408C7F8008086F311882269D4E90013FF
:1059F0005B1AB2EBA30F0CBF012000205949FAF744
:105A0000A7FF8146002889D180F3118886F3118889
:105A100020695549A0F10400B0FA80F04009FAF776
:105A200097FF054610B189F3118847E780F3118885
:105A300086F31188D4E90230C61A704270414B498E
:105A4000FAF786FF00287FF469AF80F311880523F9
:105A5000454606464FF02008DFF804913B6088F386
:105A6000118801A8FCF79CF886F31188B0FA80F041
:105A700049464009FAF76CFF00287FF41FAF9DF8F4
:105A80000400FBF705F8013DE9D139493948FBF736
:105A900077F800287FF412AF06234FF0FF3146203D
:105AA0003B60FFF7B5FDB0FA80F02D494009FAF7E9
:105AB0004FFF00287FF402AF4FF0FF3101A8FFF73E
:105AC00017FEB0FA80F026494009FAF741FF002896
:105AD0007FF4F4AE07233B6088F311882369D4E98F
