:020000040800F2
:1050000000100020395200083B5200083A520008B4
:105010003A5200083A5200083A5200083A52000840
:105020003A5200083A5200083A520008219C0008FF
:105030003A5200083A5200083A5200083A52000820
:105040003A5200083A5200083A5200083A52000810
:105050003A5200083A520008E19B0008919B000870
:10506000419B0008F19A0008A19A00083A520008F2
:105070003A5200083A5200083A5200083A520008E0
:105080003A5200083A5200083A5200083A520008D0
:10509000D19400083A5200083A520008B199000829
:1050A0003A5200083A5200083A5200083A520008B0
:1050B000F19700083A5200083A5200083A520008A4
:1050C0003A5200083A5200083A5200083A52000890
:1050D0003A5200083A5200083A5200083A52000880
:1050E000919800083A5200083A5200083A520008D3
:1050F0003A5200083A5200083A5200083A52000860
:105100003A5200083A5200083A5200083A5200084F
:105110003A5200083A5200083A5200083A5200083F
:105120003A5200083A5200083A5200083A5200082F
:105130003A5200083A5200083A5200083A5200081F
:105140003A5200083A5200083A5200083A5200080F
:105150003A5200083A5200083A5200083A520008FF
:1051600072B6274880F30888264880F309882648C5
:105170004EF60851CEF200010860022080F3148838
:10518000BFF36F8F09F09CF804F062F94FF05530CF
:105190001E491B4A91423CBF41F8040BFAE71C49E7
:1051A000184A91423CBF41F8040BFAE719491A4AE0
:1051B0001A4B9A423EBF51F8040B42F8040BF8E731
:1051C00000201749174A91423CBF41F8040BFAE707
:1051D00009F02EF809F06CF8134C144DAC4203DAC8
:1051E00054F8041B8847F9E706F0EAFF104C114D0C
:1051F000AC4203DA54F8041B8847F9E709F050B8C9
:10520000001000200014002000500008000C0020B6
:1052100000100020E40C0108001400209818002061
:1052200098180020E0290020605100086051000813
:10523000605100086051000892E7FFE7FEE7C046B2
:105240002DE9F04FC1F80CD0C3689D46BDE8F08F42
:10525000002383F311882846A047002004F0F0FCC7
:1052600004F0FEFC00DFFEE7844641EA000313F091
:10527000030349D1403A23D30B6803604B68436072
:105280008B688360CB68C3600B6903614B694361C2
:105290008B698361CB69C3610B6A03624B6A4362AA
:1052A0008B6A8362CB6AC3620B6B03634B6B436392
:1052B0008B6B8363CB6BC36340304031403ADBD2AE
:1052C00030320BD30B6803604B6843608B6883609C
:1052D000CB68C36010301031103AF3D20C3205D3D2
:1052E00051F8043B40F8043B043AF9D2043208D0A8
:1052F000D2071CBF11F8013B00F8013B01D30B881A
:1053000003806046704700BF082A13D38B07B1D0D3
:1053100010F00303AED0C3F10403D21ADB071CBFA5
:1053200011F8013B00F8013BA4D331F8023B20F80F
:10533000023B9FE7043AD9D3013A11F8013B00F848
:10534000013BF9D20B7803704B7843708B788370F4
:105350006046704780EA010C1CF0030F37D110F053
:10536000030C20F0030021F0030150F8042B08BFC8
:1053700051F8043B0ED08CF0030C6FF07F434FEAE2
:10538000CC0C23FA0CFC51F8043B42EA0C0243EA31
:105390000C0300BFA2F1013C9A4201BF2CEA020CAF
:1053A0001CF0803F50F8042B51F8043BF2D04FEA38
:1053B00002604FEA1222012828BFB0EB036F08BF3A
:1053C0001B0AF4D003F0FF03000EC01A704710F060
:1053D000030F0AD010F8012B11F8013B012A28BF56
:1053E0009A42F4D0A2EB030070474DF8045D50F8E8
:1053F000042B01F0030521F0030151F8043B022DB9
:1054000026D04DD822F07F45B5EB132FA2F1013CF9
:105410002CEA020C0DD11CF0803C08BF51F8043B73
:105420000AD185EA0205B5EB036F0CD150F8042BC5
:10543000E8E74FEA13235BE03CF07F4C54D10B7854
:105440004FEA126554E04FEA126503F0FF034FE0A4
:105450004FEA0245A2F1013C4FEA15452CEA020C45
:10546000B5EB134F18D11CF0803C08BF51F8043B3A
:1054700007D185EA0205B5EB034F09D150F8042B9B
:10548000E6E75FEA0C4C2FD10B884FEA12452FE07C
:105490004FEA03434FEA12454FEA134328E000BFA7
:1054A00002F0FF05B5EB136FA2F1013C2CEA020CF0
:1054B0000DD11CF0803C08BF51F8043B0AD185EAAD
:1054C0000205B5EB032F0AD150F8042BE8E74FEAA9
:1054D00013630DE012F0FF0F06D051F8043B4FEAC2
:1054E000122523F07F4303E04FF0000020BC7047FB
:1054F00005F0FF0203F0FF00012828BF904204BF1F
:105500002D0A1B0AF4D0A2EB000020BC704700BF9C
:10551000202383F31188094B9A6822B100200023CD
:1055200083F311887047064A01209269916B936357
:10553000C3E90221002383F3118870473818002043
:10554000B01E00200000000000000000000000006D
:10555000202383F311880023034A9269506B53631D
:1055600083F31188704700BFB01E002000000000C8
:105570004FF080435B6A091A9BB2181A88420ADB13
:10558000012010B40549064C064B074A20700870EC
:105590001A6010BC70470020704700BF9827002099
:1055A0003828002094270020B8E5000800000000FB
:1055B00070B4202383F311880D4C4D1E26684319C7
:1055C000B018494228440B400840626803449342A3
:1055D00007D89E4205D82360002383F3118870BC4E
:1055E00070470020002383F3118870BC704700BF10
:1055F000402000200000000000000000000000002B
:10560000022906D0032906D00129064818BF002028
:10561000704705487047032A9ABF044800EBC20050
:1056200000207047000C0108B40B0108880C010829
:1056300000200B4B0B4AD91D21F00701CB1AC3F1F7
:10564000780310B4DB0802F10C044B605160086071
:10565000C2E9034410609060506110BC704700BF05
:10566000B82700209C270020000000000000000058
:1056700000220421044BDA609A61C3E900339A6086
:10568000C3E90411704700BF141800200000000097
:10569000FFF7EEBF00000000000000000000000067
:1056A0000020704700000000000000000000000023
:1056B00000210422024B1960D960C3E9012270471E
:1056C0008018002000000000000000000000000022
:1056D000002130B4094B0A4A03F1180402F1100505
:1056E00003F120005D60C3E9064430BC1A60C3E9E1
:1056F0000222C3E908001961197570475818002083
:10570000C820002000000000000000000000000091
:10571000FFF7DEBF000000000000000000000000F6
:10572000FFF7D6BF000000000000000000000000EE
:105730000022024B9A60C3E900337047E820002042
:105740000122024B9A60C3E9003370471421002004
:10575000704700BF000000000000000000000000D3
:105760000022024B9A60C3E90033704714210020E5
:1057700000224FF4A4700421024B1A60DA60C3E9DE
:1057800001017047D8200020000000000000000048
:1057900000200B4B0B4AD91D21F00701CB1AC3F592
:1057A000CC6310B4DB0802F10C044B60516008605C
:1057B000C2E9034410609060506110BC704700BFA4
:1057C00028210020AC200020000000000000000084
:1057D00008B5FFF7BDFE024A024B12601B6008BD10
:1057E0000C1800201018002000000000000000002D
:1057F000FFF7AEBE00000000000000000000000047
:10580000FFF7F6BF000000000000000000000000ED
:10581000FFF7EEBF000000000000000000000000E5
:10582000FFF7E6BF000000000000000000000000DD
:10583000FFF7DEBF000000000000000000000000D5
:105840000020064A064B07499060C2E90022986092
:10585000C3E90033C1E90011704700BF38180020C8
:10586000481800200418002000000000000000007C
:105870000021044B044A9960C3E90033C2E90022C5
:10588000704700BF381800200418002000000000F6
:10589000FFF7EEBF00000000000000000000000065
:1058A0000022024B9A60C3E9003370473818002089
:1058B0000021044A044B9160C2E900229960C3E9C7
:1058C00000337047381800204818002000000000FE
:1058D000FFF7E6BF0000000000000000000000002D
:1058E0000022024B9A60C3E9003370470821002070
:1058F000FFF7F6BF000000000000000000000000FD
:10590000FFF7EEBF000000000000000000000000F4
:10591000FFF7E6BF000000000000000000000000EC
:105920000122024B9A60C3E900337047082100202E
:105930000022014B1A607047682800200000000018
:1059400048B9012010B4054A054C064B2070107070
:10595000196010BC70470020704700BF98270020D6
:1059600038280020942700200000000000000000DC
:105970004FF0804301201946044A10605A6A92B2DF
:105980004B6A9BB29A42FBD0704700BF3C28002074
:105990000121074A2023116083F3118862B672B691
:1059A00083F3118862B6002383F3118862B67047CF
:1059B0003C28002000000000000000000000000063
:1059C00030B4202500240A4B03F1140053F8042BB3
:1059D0004AB185F3118892F8211041F0040182F850
:1059E000211084F311888342F0D130BC704700BF8E
:1059F000542800200000000000000000000000000B
:105A000020B370B584B06D46114E2C4600E01446AC
:105A10002246A6FB0013DB0803EB8301A0EB410049
:105A200000F13001C9B202F8011B1846002BEED17B
:105A3000AA4209D9074E01E014F8011D3068036835
:105A40009B689847A542F7D104B070BD704700BF6E
:105A5000CDCCCCCC9027002000000000000000003E
:105A600028B9044B3021186803689B681847FFF772
:105A7000C7BF00BF9027002000000000000000000A
:105A8000202383F31188064A064913688B4202D209
:105A9000591C18701160002383F31188704700BFF0
:105AA00050280020502800200000000000000000C6
:105AB0004320FFF7E5BF00BF00000000000000002A
:105AC0004220FFF7DDBF00BF000000000000000023
:105AD0004120FFF7D5BF00BF00000000000000001C
:105AE0000078FFF7CDBF00BF0000000000000000FD
:105AF000FFF7F6BF000000000000000000000000FB
:105B000070B5017889B10446094D286803689B681F
:105B1000984714F8011F0029F7D128680222BDE830
:105B20007040036803491B681847014DF5E700BF43
:105B300090270020FCE800080000000000000000A2
:105B4000017859B138B50446054D286803689B684B
:105B5000984714F8011F0029F7D138BD704700BFDE
:105B6000902700200000000000000000000000005E
:105B7000F0B40D4E0D4F421E35683B4603E013F85E
:105B8000014B844207D19D4212F8010FF7D810B99A
:105B90003760F0BC70470120054C064A064B207068
:105BA00010701960F0BC7047502800204028002079
:105BB00038280020982700209427002000000000AB
:105BC000F8B5012307251E4600240D4A0D4F13602A
:105BD00025FA04F3DB0706FA04F20ED557F8243051
:105BE000204625EA020501349847002DF0D1BDE892
:105BF000F84005490548FFF7BBBF0134E8E700BF9F
:105C00003C2800207CE9000854FB000868FB0008E1
:105C100070B54C24074D28682D2103689B68984770
:105C2000013CF8D128680222BDE8704003680249AF
:105C30001B68184790270020FCE8000800000000BF
:105C400000EB8100C36830B45A69188A13681A4C93
:105C5000984228BF1846D060236D0D0103F18043A0
:105C600003F5C0439468EA582B44586088B102F1A8
:105C7000005202F54052520001384008131D03EB58
:105C8000800000E0043334F8025B984215601A4645
:105C9000F8D130BC890001F1804101F5B8410B68B1
:105CA00023F4F04323F0400383F0300343F4004334
:105CB00043F080030B607047005C00400000000070
:105CC00000EB8100C06882691368BBB1408A03445D
:105CD000013BB3FBF0F39381890001F1804101F5B1
:105CE000B8410B6823F4904323F0700383F44053CE
:105CF00043F4004343F080030B607047012393811A
:105D0000EAE700BF00000000000000000000000003
:105D100000EB8103F0B4DE68336813F0030353D063
:105D2000022B5DD9032B4FD14FF4C0632D4A746908
:105D3000126D0F0102F1804202F5C042BD1884B11C
:105D40004FF0000C348AC5F804C0D0F884C0013488
:105D500024F001046444C0F8844043F0200347F871
:105D600002C0B269C2B1748A3E2C04F1FF322ED94E
:105D700042F01F0201321C4E521146EA822292B2B8
:105D8000EA60D0F88420013424F001041444C0F8FF
:105D9000844043F40053AA6048F2800047F6700440
:105DA00043EA010222F47842890022F0F00201F174
:105DB000804101F5B84102430A600A68234053401C
:105DC00003430B60F0BC70474FF40073AEE742F042
:105DD0000102013202EBD272520202F47C42CFE79E
:105DE0000023A3E7005C00400080FFFF00000000EC
:105DF00000214368F0B4DB6880278B420CBF4FF46E
:105E00001C464FF41E464025054B064C1965596447
:105E1000DF641E64C0F88450C460F0BCFFF778BF34
:105E2000005C004010E900080000000000000000D5
:105E300090F86420152A15D8012340F6416193405B
:105E40000B4270B5044625D113F480150BD0C368FE
:105E50009B695B682BB9036F03B19847002384F8F3
:105E6000643070BD70479B02FBD50B22202380F865
:105E7000642083F31188C36802895B6942F00102E0
:105E8000028129469D60C3E90055FFF7D9FE85F3DD
:105E9000118870BD48F280060D4943680A681D6884
:105EA00022F4F04222F0400282F0100232430A60F3
:105EB0000B6823F4904323F0700383F4805333433F
:105EC0000B600DB10621A847062384F8643070BD2D
:105ED000005C004000000000000000000000000026
:105EE00038B590F864300446152B2AD8DFE803F063
:105EF0000B29292929290B29292A3A512929292914
:105F0000292929290B0B48F28000304963680A6867
:105F10001D6822F4F04222F0400282F01002024397
:105F20000A600B6823F4904323F0700383F48053DA
:105F300003430B6015B106212046A847062384F8C9
:105F4000643038BD90F87B1090F87A30C26E43EA26
:105F500001239A4206D2C3681B8AB2FBF3F503FB06
:105F60001525EDB11422202384F8642083F31188D1
:105F70000025E36862899B6942F001026281204644
:105F80009D60C3E900552946FFF79AFE85F3118805
:105F900038BD036F03B19847002384F8643038BDDF
:105FA000202383F31188C36802895B6942F00102F0
:105FB000028129469D60C3E90055FFF741FE85F344
:105FC00011880A2384F8643038BD00BF005C0040AB
:105FD00070B590F86430044613B1002380F8643043
:105FE000C34B04F174021B6D03F1804303F5C043FE
:105FF00003EB01139B6803F1005303F540535B006F
:1060000003F1100019680433834222F8021BF9D10E
:1060100063689B6863B32046984748B3E26E94F880
:10602000743094F87B0094F87A1041EA0021914290
:106030002CBF1146E1661A0600F1A380002973D037
:106040001522202384F8642083F311880025D4E9E5
:106050001A61E36862899B6942F00102628120460D
:1060600083E862002946FFF72BFE85F3118870BD97
:1060700094F8743013F0600518461ED048F2800082
:106080009B4963680A681D6822F4F04222F04002CE
:1060900082F0100202430A600B6823F4904323F05D
:1060A000700383F4805303430B6015B1062120462F
:1060B000A847062384F8643070BD40F2023194F89A
:1060C000756003F07F0242EA06228A4200F02E81C8
:1060D00041D8022A00F0128140F2F780B2F5817FA8
:1060E00000F04481B2F5407F00F09680B2F5807FE9
:1060F000C4D194F87630012BC0D1B4F87C30A566B9
:1061000023F00203C4E91B55A4F87C300AE0B2F581
:10611000C06F80F09080B2F5A06FAFD1754BC4E92D
:106120001A552367030645D40B22202384F86420E4
:1061300083F311880025E36822895B6942F001023C
:10614000228120469D60C3E900552946FFF778FD6E
:1061500085F3118870BD40F201618A42D7D9B2F54A
:10616000106F3ED040F602418A4200F0BA80B2F58C
:10617000006F83D1012204F17F01C4E91B25A166D0
:106180004FE7B9B10922202384F8642083F31188F2
:106190000025D4E91A61E36822895B6942F00102B3
:1061A0002281204683E862002946FFF749FD85F3F6
:1061B000118870BD1422202384F8642083F3118891
:1061C0000025E36862899B6942F0010262812046F2
:1061D0009D60C3E900552946FFF772FD85F31188DC
:1061E00070BD94F8763094F87F209A420FD02278D0
:1061F000042A39D04BB10421626884F87F302170C1
:10620000136813B102212046984794F874000023C4
:10621000C4E91A33236785E794F87630012B7FF4BD
:106220002DAFB4F87C30A56643F00203C4E91B55DA
:10623000A4F87C3076E794F87910626894F87830A6
:10624000566843EA012394F8762094F877102046A4
:10625000B04700283FF412AFD0E900232567C4E916
:106260001A3294F87430DCE6202383F3118801227B
:10627000402648F2800021896389C4E90455C4E9B5
:106280000655C4E9085511401340A5622181638178
:10629000C4F88460930003F1804303F5B8431968A0
:1062A00001320143082A19601860F3D1002383F3F7
:1062B00011880321626884F87F30217013680BB164
:1062C0002046984794F8763094E73AB9022104F1D1
:1062D0007C00C4E91B12A0660A46A2E6012A7FF4EC
:1062E000CDAE022200200449C4E91B20A16698E635
:1062F000005C004051640008E00C010894F878103C
:1063000001F00F0011F0800F404951F8201052D1D8
:1063100011F440513FF4B2AEB1F5805F51D1022586
:1063200000203B49C4E91B50A1667AE694F8763018
:10633000002B7FF4A3AE94F8782012F00F033FF403
:1063400066AF9B0003F1804303F5B84312F0800F62
:106350001A684FD122F4904222F0700282F48052E7
:1063600042F4004242F080021A6050E794F876301E
:10637000002B7FF483AE94F8782012F00F033FF4E3
:1063800046AF9B0003F1804303F5B84312F0800F42
:106390001A681DD102F44052B2F5405F3FF437AFA6
:1063A0001A6822F4F04222F0400242F4204242F005
:1063B00080021A602BE711F030013FF45FAE102924
:1063C000ADD0022500201349C4E91B50A16628E680
:1063D00002F03002302A3FF41AAF1A6822F4F04279
:1063E00022F0400282F0200242F4004242F0800299
:1063F0001A600CE722F4F04222F0400282F0100210
:1064000042F4004242F080021A6000E7005C004063
:1064100088E90008CCE5000800000000000000004A
:10642000F0B50124002700EB810CDCF80CE0B0F89B
:1064300008C0DEF814508C4044EA0C040481AA60C1
:10644000C5E90037BDE8F040FFF7FABB00000000E7
:1064500090F87630426880F87E300649126843F042
:10646000800310B50446CB640AB101219047032391
:10647000237010BD005C0040000000000000000020
:10648000704700BF00000000000000000000000096
:1064900090F87430024603F06003202B01D00020F6
:1064A000704790F87530202BF9D3212B07D807209F
:1064B0000021074BC2E91B01936601207047222B84
:1064C000EDD100230120C2E91A331367704700BFE2
:1064D0003018002000000000000000000000000054
:1064E00000207047000000000000000000000000D5
:1064F000F8B5D0F88C140A681378042B01D0012069
:10650000F8BD037A022BFAD101230C79558903FADD
:1065100004F42542F3D1D0E90746B44215D0231D37
:10652000EDD0012000244FF48077497902EB8106F9
:10653000F6688840B669054355811046B360C6E9E0
:106540000074FFF7BDFB2046F8BD80690028D6D156
:10655000E5E700BF000000000000000000000000B0
:10656000406BFFF7C5BF00BF000000000000000047
:10657000D0E904239A4204D0184650F8043B0B603B
:106580007047C268002AF7D0002070470000000062
:1065900010B5446B82B0D4F88C24136819780429A0
:1065A00001D002B010BD217A0229FAD1012110795F
:1065B0001A8901FA00F31342F3D101A904F144004E
:1065C000FFF7D6FF0028ECD0D4F88C3402461979B6
:1065D0001868019BFFF724FFE3E700BF00000000FD
:1065E00010B5202382B083F311881F4CD4F88C247B
:1065F00013681978042904D0002383F3118802B0AA
:1066000010BD217A0229F7D1012110791A8901FAE6
:1066100000F31342F0D1D4E915329342ECD1226D4C
:10662000002AE9D0E26E002AE6D0043AD21AE3D07A
:106630001A60D4E9171003448B42636528BFA36E28
:10664000226D28BF63650023013A01A9074822652E
:10665000E366FFF78DFFD4F88C3402461979186889
:10666000019BFFF7DDFEC7E798180020DC1800202B
:10667000202383F311880F4B5B6813F4006302D16E
:1066800083F311887047EFF309834FF08071A3F112
:10669000200243F8041C82F30988074A11689269B2
:1066A0008968926891428CBF044A054A43F8082CD5
:1066B000704700BF00ED00E0B01E002061520008EE
:1066C000645200080000000000000000000000000C
:1066D000F0B40B4D4A1E2F684E427C1E1318214405
:1066E00001EA060033406A680344934204D89F429B
:1066F00002D82B60F0BC70470020F0BC704700BF90
:106700004020002000000000000000000000000009
:1067100008B52022034682F31188006828B1026878
:106720001A60002383F3118808BDDA68002AF8D0C4
:10673000D3E901019047002383F3118808BD00BF0E
:1067400001212DE9F041042220250020384E394B4B
:10675000394C316085F3118821682360196080F31A
:1067600011886168013A0B44F4D102230425DFF853
:10677000C880324F33604046FFF7CAFF003018BF71
:1067800001203946FFF7DCF800283BD1013DF2D16A
:10679000032329483360FFF7BBFFB0FA80F0284994
:1067A0004009FFF7CDF868BB04222027214B326057
:1067B00003F1100087F311882268236043F8042B4B
:1067C00085F311889842F5D105230425DFF8688008
:1067D0001A4F33604046FFF79BFF003018BF01207F
:1067E0003946FFF7ADF868B9013DF3D106231248E9
:1067F0003360FFF78DFFB0FA80F011494009FFF7D1
:106800009FF808B1BDE8F081072104230D4A0A482A
:1068100031602560C4E90133E260FFF779FFBDE82C
:10682000F041B0FA80F008494009FFF789B800BF8D
:106830003C280020F820002080180020D0EA000822
:10684000DCEA0008A1560008ECEA0008000000009D
:10685000202383F31188044B00229B69596B084362
:10686000586382F311887047B01E002000000000BA
:10687000202383F31188024602E08B4207D01A4698
:1068800013688342F9D1002383F3118870470B68A2
:106890001360002383F31188704700BF00000000DD
:1068A00002202DE9F047DFF8EC90364C8CB0C9F8A7
:1068B00000002460202686F31188012300254FF074
:1068C000FF31314A099323680CAF01939369CDE9F5
:1068D0000A510893019B47F8143D276085F31188FE
:1068E00086F3118823680DF13008926948F8283D35
:1068F0000392CDE904050691C4F8008085F3118860
:1069000086F3118820682149001B18BF0120FFF77A
:1069100017F820B185F311880CB0BDE8F0878246E6
:1069200080F31188032339462046C9F80030FFF769
:106930009FFF86F3118820681449001B18BF0120AF
:10694000FEF7FEFF054620B18AF311880CB0BDE8C2
:10695000F08780F31188042341462046C9F80030AF
:10696000FFF786FF86F3118820680949001BB0FAFB
:1069700080F04009FEF7E4FF0028CBD180F31188B6
:10698000CAE700BF0C180020B01E002028FB00083A
:1069900034FB00083C28002000000000000000003C
:1069A000F0B4002102270125836846680469194A6A
:1069B00043F82C6C43F86C4C06684469C06803F8D3
:1069C000265C03F8271C03F8287C43F8382C124D6A
:1069D00043F8684C43F8400C546943F80C0CA3F19D
:1069E0006C0043F83C0C43F84C5CA3F1480043E9CD
:1069F0000511A3F12005A3F11C0143F8306C43F805
:106A0000344C2061506143E90851F0BC43F8181C34
:106A1000704700BFB01E0020515200080000000067
:106A2000202383F3118890F82030072B0ED8DFE85D
:106A300003F0280D0D2408040D08426A9368013301
:106A40009360D0E900231A600268536010B40022FA
:106A50004FF0FF3481680D4B446280F820201B68A2
:106A60009A688A42FBD25A680021C0E9003210605D
:106A7000586081F3118810BC70470022436A1A6085
:106A8000E4E7002383F31188704700BFB01E0020A5
:106A900001460022074B806881F820201B689A6815
:106AA0008242FBD25A680846C1E90032116059603F
:106AB000704700BFB01E0020000000000000000072
:106AC000026890420AD010B40346002411681046B0
:106AD00019604B60546210BCFFF7DABF704700BF0B
:106AE0000F4B1A7DAAB91A6970B5D3E900618C1BE6
:106AF000B2EBA40F10D09D6801322C1D9C60A14206
:106B00002860084898BF9E601A61FFF7D9FF0020EF
:106B100070BD6FF0010070474FF0FF3070BD00BFD7
:106B20005818002078180020000000000000000025
:106B300038B50F4B1A7DA2B9D3E9004519692A1B54
:106B4000B1EBA20F10D0DA680131043A944288BF49
:106B50002A1FDA60106007481961FFF7B1FF0020B3
:106B600038BD6FF0010038BD4FF0FF3038BD00BFB9
:106B700058180020781800200000000000000000D5
:106B800038B50F4B1A7DA2B91A69AAB1DC685D68E5
:106B9000211DA9422468D96028BF1968046002F148
:106BA000FF32084828BFD9601A61FFF789FF00202B
:106BB00038BD6FF0010038BD4FF0FF3038BD00BF69
:106BC000581800207018002000000000000000008D
:106BD000074B1A689A4209D010B400241168104675
:106BE0004B601960546210BCFFF752BF704700BF82
:106BF0000418002000000000000000000000000059
:106C00000346426B90F8200011430A2859630AD0CA
:106C10000B2800D070475A6A8A43FBD100221846DD
:106C20005A62FFF735BF5A6A1142F7D1704700BF69
:106C300070B50468A0420FD006460D46E3682B43AA
:106C4000E36015B12269134203D0D4E90101FFF7D3
:106C5000D7FF2468A642F1D170BD00BF000000003C
:106C6000113138B550F8214044B3202383F3118803
:106C700004216018FFF7DCFFD4F88C14E36948792D
:106C80000A68616A02EB8002D26804F10C00926922
:106C900052681A60A56AA2692B448B42E36128BF3F
:106CA000236B02F1010228BFE361A261FFF708FF35
:106CB0002046FFF71DFC002383F3118838BD00BF79
:106CC0002DE9F04100EB81039C6A82B0F4B10E46DD
:106CD0000546202383F311880821201D05EB860734
:106CE000FFF7A6FFFB6804F144085B691B6803BB60
:106CF000404601A9FFF73CFC58B102463146284600
:106D0000019BFFF78DFB002383F3118802B0BDE8E0
:106D1000F081FB685A691268002AF4D01B8A013B93
:106D20001340F0D1314605F174022846FFF778FB95
:106D3000E9E7A36D216E226D0B44E16DA3658B42E3
:106D400028BFA36E02F1010228BFA3654046226559
:106D5000FFF7B6FE404601A9FFF70AFC0028CCD198
:106D6000D7E700BF000000000000000000000000A6
:106D7000124A30B40468C36895698442AB6318D082
:106D80000146E86B4BB11A68934203D09268904277
:106D900038BF1046DB68002BF5D1A26B2368A860D2
:106DA0000B6020465960C1E90242A16330BCFFF785
:106DB0006FBE0023A36030BC704700BFB01E002030
:106DC00083680133002B836000DD704710B40246F6
:106DD000002403681968184611604A605C6210BCA0
:106DE000FFF756BE00000000000000000000000099
:106DF00038B5036898420BD004460D461A68184609
:106E0000226054605D62FFF743FE23689C42F5D127
:106E100038BD00BF000000000000000000000000BE
:106E20001F4B30B4DA6982420FD0D0E90021002430
:106E30000A6002681C339A425160C46003D08168C2
:106E400093680B44936030BC704718460024116867
:106E500040F81C1F81424860D4601CD04FF0804431
:106E600095688A68188D53198B60626A121A92B2FB
:106E70009342E8D9991A01290BD94FF6FF72934230
:106E800028BF134630BC4FF0804203449BB253638B
:106E90007047931CF6E74FF08043DC60D3E700BFF8
:106EA000B01E0020000000000000000000000000F4
:106EB00070B44FF080442E4D646A0129C0E9032369
:106EC000A3B2EA692ED905F11C04A24238D02E8D56
:106ED00094689B1B9BB2591817D31268091B9468BE
:106EE000A14204D91268091B94688C42FAD34FF06E
:106EF000FF345368C0E900231860506081609368D4
:106F0000591A91606C6270BC7047A142E8D24FF68A
:106F1000FF73994294BF7618F6184FF08043B6B2CB
:106F20005E63DDE705F11C018A424FF00201CED11C
:106F30002B85C5E907000C46C0E9002281600BE003
:106F40004FF6FF748C4228BF0C462B85C5E907001D
:106F5000C0E90022A4B281604FF0804200200221EB
:106F600023449BB2536370BC1061D160704700BF73
:106F7000B01E002000000000000000000000000023
:106F8000EFF30583202383F311887047000000008E
:106F9000C20710B410D5264BD3E9001499423BD058
:106FA0000022096801329942FBD18C4231D06468D9
:106FB000013A9C42FBD162BB830712D51C4BDA69B4
:106FC00003F11C04A242196A2AD00023126801337B
:106FD000A242FBD191421CD04968013BA142FBD1A6
:106FE000BBB910F0040012D0114B0020D3E90421EA
:106FF0009A4219D0126901309A42FBD1914208D0CD
:10700000496901389942FBD1003018BF012010BCFA
:107010007047012010BC70479C42CDD00022C6E7CB
:10702000A142DED00023D7E79142E9D1EFE700BFCC
:10703000B01E002000000000000000000000000062
:10704000012070B5234D2024286084F31188FFF7B8
:107050009FFF002383F3118880F00100C0B21E4916
:10706000FEF76EFC00B170BD06460220286084F376
:107070001188FFF78DFF86F3118880F00100C0B200
:107080001649FEF75DFC06460028ECD103232B6071
:1070900084F311880420FFF77BFF86F3118880F0CA
:1070A0000100C0B20E49FEF74BFC06460028DAD1BB
:1070B00004232B6084F311880820FFF769FF86F30F
:1070C0001188BDE8704080F00100C0B20549FEF7AC
:1070D00037BC00BF3C280020C0F70008D8F70008E4
:1070E000FCF7000818F8000800000000000000008D
:1070F000FEE700BF000000000000000000000000EC
:10710000536910B400EB8104E26023B100241C60D9
:107110005C609C60DC60936923B100221A605A6055
:107120009A60DA6010BCFEF7F3BD00BF00000000FB
:1071300070B5052912D8DFE801F04711124747035F
:10714000202383F311882E4C0121201DFFF770FDB1
:107150000023237584F84C3083F3118870BD0646F4
:10716000202383F311880025254C264A0121FFF7AF
:10717000C7FF3046244A0221FFF7C2FF236B04F108
:107180000C006FF00101C4E90733A561C4E90D5596
:10719000FFF72EFED4E9192304F144006FF001013A
:1071A0002265C4E915332575C4E91B55FFF720FE98
:1071B000201D012184F84C50FFF73AFD2046FFF7CF
:1071C00097F985F3118870BD202383F31188012579
:1071D0000B4C0221201DFFF72BFD04F10C006FF07A
:1071E00001012575FFF704FE04F144006FF0010171
:1071F00084F84C50FFF7FCFD002383F3118870BD29
:107200009818002034E9000858E900080000000040
:1072100038B50D46E8B1044628601149204607F00C
:10722000ADF9215C044422290DD00D49204607F018
:1072300083F9286018B10023421C2A600370237868
:1072400053B1204638BD0134204607F085F8286048
:10725000F0E70C68002CE0D10024204638BD00BFC8
:1072600028ED000800000000000000000000000001
:107270000EB42DE9F04F04464FF0000886B00FAF72
:1072800057F8046B02973178721C61B1252910D030
:107290001646236820469B689847317808F1010814
:1072A000721C0029F2D1404606B0BDE8F04F03B091
:1072B000704771784FF000092D2903BFB178B21CD7
:1072C00001200020302903BF5178013230252025CC
:1072D000013205E03B78043712F8011B03EB460945
:1072E000A1F13003DBB2092B944609EB8906F3D9EF
:1072F0002A29EFD02E294FF0000248D001F0DF03F9
:107300004C2B0CF101064ED0A1F14103A1F1440632
:10731000DBB2342E00F21F81DFE816F06F011D0191
:107320001D011D011D016F011D011D011D011D011B
:107330001D0119011D011D011D011D011D01E70098
:107340001D011D0178011D011D011D011D011D01F2
:107350001D011D011D011D011D018F006F011D017A
:107360001D011D011D016F011D011D011D011D01DB
:107370001D0119011D011D011D016D001D01E70009
:107380001D011D0178013B78043703EB46021CF810
:10739000011B02EB8206A1F13003DBB2092BF4D909
:1073A0002A29F0D0AAE79CF800300BB3A3F14401DE
:1073B000342900F2D280DFE801F0E1D0D0D0D0E172
:1073C000D0D0D0D0D0CBD0D0D0D0D099D0D0DED0EB
:1073D000D0D0D0D0D0D0D0D0D041E1D0D0D0D0E11A
:1073E000D0D0D0D0D0CBD0D0D01FD099D0D0DE004C
:1073F0000B466646DAE76646D7F800A00437BAF1CE
:10740000000F00F007819AF800305546002A40F03E
:107410000881002B00F0158147F6FE72534601E00B
:10742000013A03D413F8011F0029F9D15B1BA9EB22
:107430000309013B009320250BE066463B680DF1F4
:10744000180A0AF80C3D0023202509F1FF390437FA
:107450000093B9F1000F21DB002840F08880C9F1CA
:107460000003B9F1000F00F081809AF80010226843
:107470002D29926800F0AF809B4601E023689A684E
:107480002946204690471BF1010BF7D1009A5B4635
:10749000002AC844FFF6F7AE994605E0009B002B92
:1074A000FFF6F1AE4FF00009DDF800B023680BF1F4
:1074B000FF3B9B681AF8011B20469847BBF1FF3F32
:1074C000F4D1009B08F1010843449846B9F1000F3C
:1074D0003FF4D9AECA46236829469B6820469847A0
:1074E000BAF1010AF7D1C844CDE666464FF00A0E5C
:1074F00057F8042B0DF1170100E05946B2FBFEFCD2
:107500000EFB1C2202F13003392BC8BF02F13703F6
:107510006246DBB201F8013C01F1FF3B002AECD1ED
:107520000A460DF117010DF10C0AA1EB0B0ED44622
:107530000BEB0E0101E012F8013B8A420CF8013B13
:10754000F9D10EF1FF33A9EB0E09009381E76646EE
:107550004FF0080ECCE766460B4600220DF1180AE4
:10756000009209F1FF390AF80C3D72E79946009B39
:10757000002B99DAAAE74FF0100EB9E7391D3A68E7
:107580000F46002A54DB0DF10C0AD6460EF10B0B08
:1075900059462E4BA3FB02C3DB089C4603EB830337
:1075A000A2EB430362463033DBB201F8013D002A0F
:1075B000EFD1ABEB0102724401E011F8013F0EF88C
:1075C000013B9645F9D1AEEB0A0E0EF1FF33A9EB64
:1075D0000E0900933DE7302D7FF44EAF2046019316
:1075E0009047009B2268013B0093019B08F1010832
:1075F00092680AF1010A9B4642E7394651F8042B8A
:10760000192B664688BF0F46BBD8B8E766464FF0D1
:10761000100E6DE70E4DAA46002A3FF4FDAE013A6A
:10762000FCE6002BFBD14FF0FF332025009310E741
:107630002D2352428DF80C300DF10D0E0DF10C0A78
:10764000A4E74FF0FF332025009305E7CDCCCCCC49
:1076500018E6000800000000000000000000000024
:10766000002918DC70B504460C4E0D4D05E033685A
:107670004FF480621B6829469847236800215B69A4
:107680002046984701300548F1D02046BDE87040BB
:107690000449FFF7EDBD0449FFF7EABD9818002043
:1076A00000140020E0E80008F0E8000800000000F6
:1076B000002903DD084A0949FFF7DABD202383F3D7
:1076C00011884FF080420023526A83F311880449E5
:1076D00092B2FFF7CDBD00BF38E8000840E80008CF
:1076E0004CE800080000000000000000000000005E
:1076F000012903D0034A0449FFF7BABD12680349C0
:10770000FFF7B6BD20E6000840E8000830E60008B4
:10771000002903DD194A1A49FFF7AABD10B504462E
:1077200082B0184A1849FFF7A3FD184A18492046A5
:10773000FFF79EFD174A18492046FFF799FD174AA3
:1077400017492046FFF794FD164A17492046FFF7D0
:107750008FFD164A16492046FFF78AFD154A16493D
:107760002046FFF785FD154B20460093144A154B24
:107770001549FFF77DFD02B010BD00BF38E60008D7
:1077800040E8000840E6000848E600085CE600081B
:10779000A4E60008B8E60008C0E60008D4E6000841
:1077A000E0E60008F4E600080CE7000820E700081F
:1077B0004CE7000860E7000874E70008B0E700083D
:1077C0008CE7000888E7000898E700080000000040
:1077D000012370B5324D334C33482B60FEF7B0F9BE
:1077E0007420FEF70DF92046FEF78AF902232F4890
:1077F0002B60FEF7A5F94420FEF702F92046FEF7BC
:107800007FF9032304262A482B60FEF799F91420F8
:10781000FEF7F6F82046FEF773F926482E60FEF7CD
:107820008FF90C20FEF7ECF82046FEF769F90523E6
:1078300021482B60FEF784F91020FEF7E1F820467E
:10784000FEF75EF906231D482B60FEF779F9082044
:10785000FEF7D6F82046FEF753F9072318482B60A9
:10786000FEF76EF93046FEF7CBF82046FEF748F9F2
:10787000082314482B60FEF763F91420FEF7C0F8C4
:107880002046FEF73DF909230F482B60FEF758F913
:107890002820FEF7B5F82046BDE87040FEF730B965
:1078A0003C2800206CFE00085CFE000874FE000806
:1078B00084FE000894FE0008A4FE0008B4FE000840
:1078C000C4FE0008D4FE0008E4FE0008000000002A
:1078D00038B50125C84BC94CC9481D60FEF730F9C1
:1078E0001020FEF78DF82046FEF70AF9C548FEF78E
:1078F00027F94FF4FA60FEF783F82046FEF700F907
:10790000C148FEF71DF92020FEF77AF82046FEF761
:10791000F7F8BE48FEF714F92020FEF771F820466C
:10792000FEF7EEF8BA48FEF70BF90220FEF768F80A
:107930002046FEF7E5F8B748FEF702F90020FEF70B
:107940008FF82046FEF7DCF8B348FEF7F9F8002080
:10795000FEF786F82046FEF7D3F8B048FEF7F0F8B9
:107960000020FEF77DF82046FEF7CAF8AC48FEF787
:10797000E7F82846FEF744F82046FEF7C1F8A94884
:10798000FEF7DEF80020FEF76BF82046FEF7B8F8A9
:10799000A548FEF7D5F82846FEF732F82046FEF750
:1079A000AFF8A248FEF7CCF82846FEF729F82046A3
:1079B000FEF7A6F89E48FEF7C3F82846FEF720F823
:1079C0002046FEF79DF89B48FEF7BAF80020FEF728
:1079D00047F82046FEF794F89748FEF7B1F8284696
:1079E000FEF70EF82046FEF78BF89448FEF7A8F84D
:1079F0000020FEF735F82046FEF782F89048FEF7A3
:107A00009FF82846FDF7FCFF2046FEF779F88D48E1
:107A1000FEF796F82846FDF7F3FF2046FEF770F8CC
:107A20008948FEF78DF82846FDF7EAFF2046FEF765
:107A300067F88648FEF784F82846FDF7E1FF204600
:107A4000FEF75EF88248FEF77BF82846FDF7D8FF80
:107A50002046FEF755F87F48FEF772F80020FDF744
:107A6000FFFF2046FEF74CF87B48FEF769F82846F2
:107A7000FDF7C6FF2046FEF743F87848FEF760F8AA
:107A80002846FDF7BDFF2046FEF73AF87448FEF79A
:107A900057F82846FDF7B4FF2046FEF731F8714845
:107AA000FEF74EF82846FDF7ABFF2046FEF728F814
:107AB0006D48FEF745F82846FDF7A2FF2046FEF781
:107AC0001FF86A48FEF73CF82846FDF799FF204664
:107AD000FEF716F86648FEF733F82846FDF790FFE4
:107AE0002046FEF70DF86348FEF72AF80820FDF758
:107AF00087FF2046FEF704F85F48FEF721F8284686
:107B0000FDF77EFF2046FDF7FBFF5C48FEF718F807
:107B10002846FDF775FF2046FDF7F2FF5848FEF7AF
:107B20000FF82846FDF76CFF2046FDF7E9FF5548A2
:107B3000FEF706F82846FDF763FF2046FDF7E0FF55
:107B40005148FDF7FDFF2846FDF75AFF2046FDF797
:107B5000D7FF4E48FDF7F4FF0020FDF781FF2046D8
:107B6000FDF7CEFF4A48FDF7EBFF0020FDF778FF59
:107B70002046FDF7C5FF4748FDF7E2FF0020FDF76F
:107B80006FFF2046FDF7BCFF4348FDF7D9FF0020FB
:107B9000FDF766FF2046FDF7B3FF4048FDF7D0FF35
:107BA000FF20FDF72DFF2046FDF7AAFF3C48FDF71B
:107BB000C7FF8020FDF724FF2046FDF7A1FF3948CD
:107BC000FDF7BEFF0020FDF74BFF2046FDF798FFB5
:107BD0003548FDF7B5FF0020FDF742FF2046FDF7D1
:107BE0008FFF3248FDF7ACFF0020FDF739FF20463C
:107BF000BDE83840FDF784BF3C280020CC000108D8
:107C000020F000084CF0000878F00008A4F000080C
:107C1000D0F00008FCF0000828F1000854F100083A
:107C200080F10008ACF10008D8F1000804F2000867
:107C300030F200085CF2000888F20008B4F2000894
:107C4000E0F200080CF3000838F3000864F30008C1
:107C500090F30008BCF30008E8F3000814F40008EF
:107C600040F400086CF4000898F40008C4F400081C
:107C7000F0F400081CF5000848F5000874F5000849
:107C8000A0F50008CCF50008F8F5000824F6000877
:107C900050F600087CF60008A8F60008D4F60008A4
:107CA00000F700082CF7000858F7000884F70008D0
:107CB00038B50125184B19481D60194CFDF720FFF8
:107CC0001848FDF73DFF2846FDF79AFE2046FDF7D0
:107CD00017FF1548FDF734FF1448FDF711FF14484E
:107CE000FDF72EFF0520FDF78BFE2046FDF708FF70
:107CF0001048FDF725FF0020FDF7B2FE2046FDF7F6
:107D0000FFFE0D48FDF71CFF0020FDF7A9FE2046F1
:107D1000BDE83840FDF7F4BE3C28002000EF000825
:107D2000CC00010834EF000860EF000840E60008CE
:107D30008CEF0008B8EF0008E4EF00080000000036
:107D400001221C4B10B51C481A60FDF7F9FE1B48B8
:107D5000FDF7D6FE1A48FDF7F3FE1A48FDF7D0FEF0
:107D60001948FDF7EDFE1948FDF7CAFE1848FDF762
:107D7000E7FE1848184CFDF7C3FE1848FDF7E0FE73
:107D80000420FDF73DFE2046FDF7BAFE1448FDF73E
:107D9000D7FE0820FDF734FE2046FDF7B1FE11485E
:107DA000FDF7CEFE0820FDF72BFE2046BDE8104073
:107DB000FDF7A6BE3C280020BCED0008B8E6000890
:107DC000E8ED0008D4E6000814EE00085CE60008C0
:107DD00040EE0008F4E60008CC0001086CEE000854
:107DE00098EE0008C4EE000800000000000000004B
:107DF00070B50C68A14212D00D46064602E0246818
:107E0000A5420CD008223146A01806F019FB002824
:107E1000F5D12CB1636820460133636070BD002446
:107E2000204670BD000000000000000000000000BF
:107E3000F8B50C680D46A1420646174603D10DE081
:107E40002468A5420AD008223146A01806F0F8FAA4
:107E50000028F5D114B104462046F8BD3846FEF797
:107E600057FC044648B108223146104406F032FB64
:107E700001222B68C4E900322C602046F8BD00BF07
:107E800070B5202383F31188124A106894698368BF
:107E9000A1688B4203D2002383F3118870BD0126B1
:107EA000002503685A60136080F82060906184F8B0
:107EB000205000E01B689A689142FBD95A6821461D
:107EC000C4E9003214605C60FDF7BAF9002383F363
:107ED000118870BDB01E00200000000000000000EE
:107EE00038B50446084DFFF7CBFFFFF7C9FFFFF792
:107EF000C7FFFFF7C5FF2368AA690433236092F820
:107F000021305B07EFD538BDB01E00200000000017
:107F1000164B70B49E69856804464162B06885421C
:107F20000DD8002284F820201B689A689542FBD95E
:107F30005A68C4E9003214605C6070BC704700216C
:107F40001A4686F82010126891688842FBD90120F1
:107F50005168C6E900210E60566084F82000314661
:107F600020469C6170BCFDF76BB900BFB01E0020BD
:107F7000F8B5202484F31188012400250227C0E9E4
:107F8000372300F1DC03194EC0F80C31184B194AA5
:107F9000C0F8FC30736980F8224100F58074C0F8A5
:107FA0000811C0F83C11A0F82071C0F81821C0F8E1
:107FB000385100F59472C0F83451C0F81061C0F81F
:107FC0001431C0F81C011C6100F59673C0F828211B
:107FD000C0F82C31C0F83031294620467461FFF7D3
:107FE00097FF85F311882046F8BD00BFB01E002022
:107FF00051520008F8E500080000000000000000F1
:1080000008B5202383F31188064B1868984205D0E1
:108010000268002153601A60FFF77AFF002383F3A0
:10802000118808BD041800200000000000000000B6
:10803000F0B5144D87B0074628460E461446FEF7A5
:1080400067FBE0B16B68104A03440293009701900C
:10805000039605940492202383F311886846FEF763
:108060009FFC0223056480F8213000210446FFF7BD
:108070004FFF002383F31188204607B0F0BD04466C
:10808000FAE700BFD8200020F15A000800000000E5
:1080900008B5202383F3118883680133002B8360A4
:1080A00003DD002383F3118808BD03460068002127
:1080B00002681A605360FFF72BFF002383F31188D7
:1080C00008BD00BF0000000000000000000000002C
:1080D00030B40125074B99691A6881F820001468AB
:1080E0001046636082F820501C6030BC9A61FDF736
:1080F000A7B800BFB01E0020000000000000000074
:108100000B4A10B52023946983F31188636B33B94C
:108110004FF0FF330A206362FFF7DAFF636B5842C8
:10812000184023EA00036363002383F3118810BD22
:10813000B01E002000000000000000000000000051
:10814000094A10B52023946983F31188606B30B914
:108150004FF0FF330A206362FFF7BAFF606B002322
:10816000636383F3118810BDB01E0020000000007F
:108170000C4A10B52023946983F31188636B03F0D4
:108180000502052A05D005230B206362FFF7A0FF37
:10819000636B23F005036363002383F311880520D9
:1081A00010BD00BFB01E0020000000000000000055
:1081B000074A10B52023946983F311880320FFF741
:1081C00087FF636A002BF9D0002383F3118810BD69
:1081D000B01E0020000000000000000000000000B1
:1081E00030B54B1C87B012D005460C4C01A8A369D2
:1081F0000B4AFEF75DFE2846FFF76AFF049B13B1AA
:1082000001A8FEF70DFEA369586A07B030BDFFF75D
:108210005FFF024CA369586A07B030BDB01E002052
:10822000216A0008000000000000000000000000BB
:10823000202383F31188104B99684A1E002A9A6004
:1082400004DB0020002383F31188704780B10B4AC0
:1082500010B592695C685362C2E90034014622603D
:1082600005205A60FFF7BCFF002383F3118810BD7F
:1082700099604FF0FF30E5E708210020B01E002094
:1082800010B5202383F31188154CA268531E002BD0
:10829000A36007DBE068B0B10368E360002383F309
:1082A000118810BDC8B10F4B62689B690146C3E9D4
:1082B00000425C62052013606360FFF791FF0028B5
:1082C000E8D00020EAE7A369002BFAD0D4E9040142
:1082D0009847002383F3118810BDA260DEE700BF3A
:1082E00014180020B01E0020000000000000000054
:1082F000012208B5064BC8201A60FFF7C1FFBDE890
:108300000840B0FA80F003494009FDF719BB00BFEF
:108310003C280020DCEA000800000000000000000B
:10832000012070B5554D564C2860A269202383F377
:108330001188536B33B983F311885249FDF700FB61
:1083400080B170BD5842184023EA000353630023F4
:1083500083F31188B0FA80F04A494009FDF7F0FA3A
:108360000028EED1A369202282F311885A6B002ADB
:108370006FD0586380F311884249FDF7E1FA002875
:10838000DFD1A369202282F311885A6B013264D0B5
:1083900080F3118801203B49FDF7D2FA0028D0D1A3
:1083A0000223A6692B60202383F31188756B4DB9D6
:1083B0004FF0FF33642173620A20FFF711FF00289A
:1083C0004FDB756B6842284025EA00057563002382
:1083D00083F31188B0FA80F040092A49FDF7B0FA1A
:1083E0000028AED1A669202383F31188756B4DB99F
:1083F0004FF0FF33642173620A20FFF7F1FE00287B
:1084000033DB756B0023736383F31188B5FA85F052
:1084100040091C49FDF794FA0546002891D1A4694A
:10842000202383F31188636B013308D04FF0FF33AF
:10843000642163620B20FFF7D3FE002819DB0023C1
:10844000636383F311882846BDE870400D49FDF74A
:1084500077BA82F3118801208EE7586380F3118880
:1084600099E785F311880120B7E785F3118801208A
:10847000CFE785F311880125E5E700BF3C28002000
:10848000B01E002000FC00080000000000000000FA
:1084900061B10246074B10B49B6944680420C3E9EC
:1084A00000242360536010BCFFF79ABE4FF0FF30EA
:1084B000704700BFB01E0020000000000000000058
:1084C00038B504460D4607E0237A83B9294620468D
:1084D000FFF7DEFF002809DBE368002BF4D0002063
:1084E0002369E1691A1D0B44C4E90A2338BD6FF002
:1084F000010038BD00000000000000000000000086
:108500002DE9F04F994683B005460E4617462023C5
:1085100083F311884FF080424FF0000B526AA86A33
:108520004A4493B2D84609F1FF3A0193002841D05A
:10853000EA6AA7EB0B04121A944228BF1446402C97
:1085400049D906F14002D6F800C07468B168F368F2
:1085500010369642C0F800C044608160C36000F1EC
:108560001000F0D1AA6A0BF1400B4032AA62E96A0E
:10857000914215D8E9692A6904391160EC69A96941
:1085800022448A422A6128BF6A6AE86828BF2A61B1
:108590002A6B0138E860C5F828800AB12846904760
:1085A00088F31188BB4529D2202282F31188A86A5A
:1085B0000028BDD11AF1030F17D84FF08043596A34
:1085C000019B591A89B289451CD32846FFF778FFC9
:1085D00088B9A86AACE722463146FCF745FEAA6A8C
:1085E000A34422442644AA62C1E749462846FFF72D
:1085F00067FF0028EDD0002282F31188584603B0AF
:10860000BDE8F08F80F31188584603B0BDE8F08FC5
:108610004430FFF775BF00BF0000000000000000FD
:1086200044304FF0FF33FFF76BBF00BF0000000086
:1086300070B520230E46044683F31188856A05B37E
:108640002E70D4E90A3201339342A36215D3E26952
:108650002369043A1A60E268E069013AE2600022A4
:10866000A16903448B42236128BF636AA26228BFC9
:108670002361236B0BB120469847002080F31188BB
:1086800070BD1146FFF71CFF08B9A56AD8E785F34E
:10869000118870BD00000000000000000000000014
:1086A0004430FFF7C5BF00BF00000000000000001D
:1086B00044304FF0FF32FFF7BBBF00BF00000000A7
:1086C00038B504460D4607E0237A83B9294620468B
:1086D000FFF7DEFE002809DBE368002BF4D0002062
:1086E00063691A6804331A44C4E90A3238BD6FF06A
:1086F000010038BD00000000000000000000000084
:108700002DE9F04F994683B004460E4617462023C4
:1087100083F311884FF0804300255B6AA16A4B44C4
:108720009BB2A84609F1FF3A0193002945D0E36ABC
:10873000A7EB050B5B1A9B4528BF9B46BBF1400F7F
:108740004DD9334601F14002D1F800B0D1F804E030
:10875000D1F808C0C86810319142C3F800B0C3F81E
:1087600004E0C3F808C0D86003F11003ECD1A36A99
:10877000403640334035A362E26A9A4213D8D4E9C6
:1087800006216369E0680B449342636128BF636A12
:1087900000F1FF3028BF6361236BE060C4F82880DC
:1087A0000BB12046984788F31188BD422AD2202376
:1087B00083F31188A16A0029B9D11AF1030F18D8DF
:1087C0004FF08043019A5B6AD31A9BB299451DD33F
:1087D00019462046FFF774FF88B9A16AA7E730461B
:1087E0005A46FCF741FDA36A5D445B445E44A362C4
:1087F000C2E749462046FFF763FF0028EDD000237B
:1088000083F31188284603B0BDE8F08F81F3118807
:10881000284603B0BDE8F08F000000000000000013
:108820000C30FFF76DBF00BF00000000000000002B
:108830000C304FF0FF33FFF763BF00BF00000000B4
:1088400070B52023044683F31188856AEDB115F8CD
:10885000016BE26AA562954212D3D4E90610E26880
:108860006369013AE260002203448B42636128BFDE
:10887000636AA26228BF6361236B0BB120469847ED
:10888000002383F31188304670BDFFF719FF0646B9
:1088900008B9A56ADBE785F31188F4E7000000005A
:1088A0000C30FFF7CDBF00BF00000000000000004B
:1088B0000C304FF0FF31FFF7C3BF00BF00000000D6
:1088C00008B50146202383F311880820FFF788FCB0
:1088D000002383F3118808BD0000000000000000A1
:1088E0004FF4005580B52F460A4B0B4A9B690B4E3F
:1088F0000B4C9A6133786761042B14BF4FF47A7084
:108900004FF4FA70FFF7DCFF25614FF47A60FFF750
:10891000D7FFEFE7B01E0020B0E50008281D0020BB
:1089200000100140000000000000000000000000F6
:10893000012370B54FF08045304E642033606C6A7F
:10894000FFF7BEFFA4B204F1670104F1640089B22D
:1089500080B2FCF70DFE00B170BD022333606C6A7B
:10896000C820A4B2FFF7ACFF04F1CB0104F1C800AA
:1089700089B280B2FCF7FCFD0028EDD103233360FF
:108980006C6AC820A4B2FFF79BFF04F1CB0104F18D
:10899000C80089B280B2FCF7EBFD0028DCD10423CB
:1089A00033606C6A4FF4FA60A4B2FFF789FF04F2F7
:1089B000D37104F5FA6089B280B2FCF7D9FD0028C2
:1089C000CAD1052333606C6A2023A4B204F1640683
:1089D000B6B283F31188696A711A89B211B108209D
:1089E000FFF7FEFB002383F3118804F16701304693
:1089F000BDE8704089B2FCF7BBBD00BF3C28002039
:108A000008B50120FFF75CFF202383F311884FF0A6
:108A100080420023506A83F3118880B208BD00BFF2
:108A20002DE9F84F0123204A00241360FFF7E8FFE7
:108A3000A34681464FF0200A00F5FA681FFA88F82D
:108A40001A4F1B4E1B4DA8EB00088AF31188002318
:108A50003A4630460121FEF72BFA3A46002342F20D
:108A600010712846FEF724FA3046FEF7D9F9284659
:108A7000FEF7D6F98BF311884FF080435B6A01341F
:108A80009BB2A3EB09034345DFDB0223064A0A48F6
:108A90001360FDF755F86000FCF7E2FFBDE8F84F02
:108AA0000648FDF72DB800BF3C28002051570008AC
:108AB0006C28002080280020F0FD000800FE00083F
:108AC0002DE9F04F88469D4C83B020609C48FDF70F
:108AD00017F8D8F80030002B00F086812A21994D34
:108AE000206803689B68984715F8011F0029F7D193
:108AF000D8F80000FDF704F89348FDF701F82A21A3
:108B0000924D206803689B68984715F8011F00295B
:108B1000F7D18F48FCF7F4FF2A218E4D20680368B7
:108B20009B68984715F8011F0029F7D18A48FCF780
:108B3000E7FF2A21894D206803689B68984715F84C
:108B4000011F0029F7D186480191FCF7D9FF7C4825
:108B5000FCF7D6FF0199834B8B461970824ED8F8EB
:108B6000043053F82B304FEA8B07002B00F01A81AA
:108B70004C2520683D2103689B689847013DF8D14A
:108B800020687A49036802221B6898473D21784D86
:108B9000206803689B68984715F8011F0029F7D1E2
:108BA0000BF1010B5846FCF75BFF2021714D20684B
:108BB00003689B68984715F8011F0029F7D1D8F87A
:108BC0000430DB591D68297839B1206803689B6837
:108BD000984715F8011F0029F7D16748FCF790FF67
:108BE0000025D8F804304FEA8509DA59526852F85E
:108BF0002520002AB5D0FDF70BF82D21DFF890A134
:108C0000206803689B6898471AF8011F0029F7D16C
:108C10005846FCF725FF20682E21036801359B6824
:108C200098472846FCF71CFF2021DFF848A1206860
:108C300003689B6898471AF8011F0029F7D1D8F8F4
:108C40000430DB595B6853F80930D3F800A09AF878
:108C5000001039B1206803689B6898471AF8011F13
:108C60000029F7D14448FCF74BFF4FF4C870FFF7D9
:108C700027FE0022D8F80430DFF818A1DB593F495D
:108C80005B68316053F809908AF80020D9F8043005
:108C900003B19847D9F80C309847D9F8083003B198
:108CA00098479AF80030002B44D02D21DFF8E89047
:108CB000206803689B68984719F8011F0029F7D1BD
:108CC0002F4BDFF8D8901868FCF7CAFE20212068E7
:108CD00003689B68984719F8011F0029F7D133688A
:108CE000264A934209D99146206819F8011B036866
:108CF0009B68984733689945F6D35D21DFF8A090CB
:108D0000206803689B68984719F8011F0029F7D16C
:108D10001C4BD3F8009099F8001039B12068036813
:108D20009B68984719F8011F0029F7D11648FCF7EE
:108D3000E7FE56E71548FCF7E3FE52E790270020D0
:108D4000CC000108B80A0108640B0108C00A010838
:108D5000680B0108D40A010820E70008E80A0108A6
:108D600060E700089827002050280020FCE8000851
:108D7000FC0A0108100B0108800B010840280020A4
:108D80003C28002094270020840B0108880B010850
:108D9000140B010838280020240B01083C0B0108A3
:108DA000400B0108FCF734FF1148FCF7A9FE4621EF
:108DB000104D206803689B68984715F8011F00292B
:108DC000F7D10D4B1B783BB90C48FCF799FE0A4BC9
:108DD000187803B0BDE8F08F0948FCF791FE064B08
:108DE000187803B0BDE8F08F0648FCF789FE83E6EB
:108DF000CC000108440B010898270020940B0108BF
:108E00009C0B0108540B010800000000000000004A
:108E10000149FFF755BE00BF240001080000000013
:108E20000149FFF74DBE00BF0CED00080000000037
:108E300038B5202383F311880C4CA269134653F8EC
:108E40002C0F984209D00D2501680024D1624B6097
:108E500080F8205084F3118838BD0E20FFF738F9D0
:108E6000A269D06A02F12C03EDE700BFB01E00201A
:108E700070B520260025FFF7DBFF446A86F31188D2
:108E80002146FFF745F885F31188002CF3D170BD1A
:108E90000E4B10B520229C6982F311886162026B2F
:108EA00000F12C01C4E90012146090F82020046342
:108EB0000E2A07D00C20FFF70BF9606A002383F31A
:108EC000118810BDFDF7E4FDF4E700BFB01E0020DF
:108ED0002DE9F0410746FFF793FD002406464FF0C9
:108EE000804800F5FA65ADB22D1A01213846FFF72A
:108EF000CFFFD8F8243001349BB29B1BAB42F4DB8C
:108F000038460021FFF7C4FF2046BDE8F08100BFCE
:108F100010B504464121FFF7BBFF20464221FFF771
:108F2000B7FF20464321FFF7B3FF2046BDE81040BE
:108F30004421FFF7ADBF00BF0000000000000000AB
:108F4000F8B5384A83689569002B40D0A9689A68BB
:108F50000446914207D993F820209960062A3BD015
:108F6000072A15D042B32646234603E09968AA682B
:108F700091422AD31B689C42F8D173680620C5E948
:108F800000631D6075606C62BDE8F840FFF7A0B833
:108F90001F6858685E6A07601F683246786002E0A2
:108FA0009068884234D312689642F9D17268C3E956
:108FB000006213607360D6E7D3E9001211601846AF
:108FC0001B685A60FDF764FDCDE71E46D5E7AB6B25
:108FD000C0E90253A863F8BD1F6858685E6A07605D
:108FE0001F68B4463246786002E09068884216D323
:108FF00012689642F9D1DCF80420A968C3E900C2DE
:109000001360CCF80430B3689A688A42A3D3AAE705
:1090100016467268C3E9006213607360A3E7944662
:10902000E9E700BFB01E00200000000000000000C3
:1090300008B5202383F31188FFF782FF002383F311
:10904000118808BD000000000000000000000000C2
:10905000202383F311888368013B002B836004DBAA
:109060000020002383F311887047034610B5084C95
:109070000520A26953625968C2E900310A605A604A
:10908000FFF726F8A369586A002383F3118810BDFF
:10909000B01E0020000000000000000000000000E2
:1090A0002DE9F8430123DFF884900025C9F800304A
:1090B000FFF7A6FC4FF08048074600F5FA66B6B207
:1090C000174C361A2046FFF7C3FF2046FEF7E0FF95
:1090D0002046FFF7BDFF2046FEF7DAFF2046FFF7E8
:1090E000B7FF2046FEF7D4FF2046FFF7B1FF20462A
:1090F000FEF7CEFFD8F8243001359BB2DB1BB3421C
:10910000E0DB02230748C9F80030FCF719FDA8008E
:10911000FCF7A6FCBDE8F8430348FCF7F1BC00BF30
:1091200014210020F0FD00081CFE00083C2800204F
:1091300038B5084CA36993F821305A0708D4064D76
:109140002846FFF785FFA36993F821305B07F7D521
:1091500038BD00BFB01E0020142100200000000018
:1091600010B5044C2046FFF773FF2046BDE81040C1
:10917000FEF78EBF08210020000000000000000064
:1091800010B504460348FFF763FF2078BDE81040A0
:10919000FCF776BC08210020000000000000000061
:1091A00038B5104B9C69A36A04F12805AB42606294
:1091B00007D01A681846A262FDF76AFCA36AAB42A0
:1091C000F7D194F8223043B994F821309B0704D1A9
:1091D000D4E904231A61226953610F20BDE83840A5
:1091E000FEF776BFB01E0020000000000000000067
:1091F0002DE9F04F81460768D9F804309BB07549D6
:1092000038460193FEF734F838467349FEF730F8D4
:10921000DFF8F8A1DFF8BCB10AAE34465146384653
:10922000FEF726F8D9F800502B685B6801220DF193
:109230000F012846984700286DD09DF80F1004298B
:1092400065D008290DF1670212D07F2910D00D29B1
:1092500022D01F292B68E8D99442E6D29B68284681
:1092600098479DF80F30013404F8013C2B68DCE787
:10927000B4422B68D9D09B680821284698472B68B0
:1092800020219B68284698472B6808219B68284620
:109290009847013C2B68C8E74FF00008284659461C
:1092A000FDF7E6FF84F8008004A93046FDF7B0FF23
:1092B000444604A98046002005ADFDF7A9FF50B142
:1092C000042C1DD045F8040B04A900200134FDF73F
:1092D0009FFF0028F4D11AAB03EB840343F8540C2E
:1092E000B8F1000F99D03D494046FCF733F800280B
:1092F00047D12CB3394A3A493846FDF7B9FF8CE7D4
:1093000038493846FDF7B4FF0023099385E728461E
:109310003549FDF7ADFF2F493846FDF7A9FF38461F
:109320003249FDF7A5FF202383F31188002130483F
:10933000FDF77EFC0020FFF733FF1BB0BDE8F08F88
:109340002C493846FDF794FF2B4C2C4A2C4D2946CE
:109350003846FDF78DFF54F8082F002AF7D1019CFD
:1093600054B1226842B1264D29463846FDF780FFA8
:1093700054F8082F002AF7D159463846FDF778FFF0
:109380004BE71D4D1D4802E055F8080F50B141460E
:10939000FBF7E0FF0028F7D16B6805AA21463846A5
:1093A00098473AE7019D5DB1286818B908E055F87B
:1093B000080F28B14146FBF7CDFF0028F7D1EBE7B6
:1093C000424610493846FDF753FF0F493846FDF72E
:1093D0004FFF22E7FCE8000868000108A800010828
:1093E00040E8000890000108840001088800010896
:1093F00020210020B0000108D80001086000010809
:10940000C0000108C4000108C80001087C00010870
:10941000002903DD084A0949FDF72ABF08B52023C2
:1094200083F3118806480021FDF702FCBDE80840DF
:109430000020FFF7B5BE00BF6000010840E800084B
:1094400020210020000000000000000000000000BB
:109450001B4B1A46196841F00101196013689807FF
:10946000FCD500201368164903F0F903136050601F
:109470004B6813F00C0FFBD10B68114A43F4803397
:109480000B6013689903FCD553680D4943F4E81346
:109490005360136843F0807313600B689B01FCD525
:1094A0001222084B084848601A604B68044A43F08F
:1094B00002034B60536803F00C03082BFAD170478A
:1094C000001002400020024000641D000000000067
:1094D0002DE9F04FC24B85B05C6C670500F1AC80A4
:1094E000260500F1CF80E50408D5BD4B9A6C100429
:1094F00040F14F816FF48052B94B5A64A1050BD5EE
:10950000DFF8E0A2DAF80430DB680BB15046984788
:109510006FF40072B24B5A64230479D5DFF8C4A209
:10952000DFF8BCB204F00F04A50005F1804505F595
:10953000B845D5F80080A61C0AEB860318F0800F0A
:109540005F684CD0D7F814C02A68DCF80430DCF827
:109550000C10DCF8000022F478420B4422F0F002F8
:1095600042F40042C01A2A60CCF8043055D03B8A3D
:109570004FEA041E984228BF1846CCF80C00DBF8CE
:109580005020DCF8083002F1804909F5C0495EF846
:109590000920194402F10052CE4402F54052CCF8A1
:1095A00008105200CEF8040068B101384008131DBD
:1095B00003EB8000844600E0043331F8020B63457E
:1095C00010601A46F8D12B6823F4F04323F04003CF
:1095D00083F0300343F4004343F080032B6018F41E
:1095E000004F11D02B6818F4006F23F4784323F058
:1095F000F00343F08003E1B22B605ED00AEB8606F5
:10960000736878485B689847DBF84440220489D443
:1096100005B0BDE8F04FFDF72BB80121BAF80830CE
:10962000A140BA6823EA0103AAF80830002AD6D07C
:1096300021466C489047D2E76FF4806100250222F2
:10964000DFF8A0A1596450468AF80020CAF87C507F
:10965000CAE90255CAE90455CAE90655CAE90855D6
:10966000CAF828508AF86450FCF7C2FBDAF80430D4
:109670001B68002B3FF434AF294650469847260517
:109680007FF531AF6FF400600521554BDFF854A131
:109690001A6C42F008021A6458649AF80020DAF84A
:1096A00004308AF880208AF800101B68002B3FF4F1
:1096B0001AAF50460421984715E7DBF85030D7F829
:1096C00018E003F1804303F5C04303EB04139A68E9
:1096D000D86802F10053C0F30909029003F5405322
:1096E000DEF808005B00B9F1010F1A460093019003
:1096F00072D9A9F102035B0802F10408039308EB95
:109700008308831C106804324FEA102C904503F83C
:10971000020C03F801CC03F10203F3D1039B009A7E
:10972000013302EB83020092019A02EB430301939F
:10973000029B03F001031BB1009B019A1B6813708D
:10974000BEF80C30B7F812C05F1EDEF80030DEE95C
:109750000102BFB24A444844A3EB0903CC45AEF82A
:109760000C70CEE90102CEF8003026D901220AEBB6
:1097700086067068BAF80A3002FA04F4C56823EA6B
:109780000404AAF80A40002D3FF43EAF1548A8474C
:109790003AE71A6CDFF84CA022F008021A649AF833
:1097A0008020DAF804308AF800201B68002B3FF490
:1097B000A1AE5046052198479CE6002FD6D02B68D5
:1097C00023F4904323F0700383F4405343F40043A5
:1097D00043F080032B6017E74B46002BACD1AFE77B
:1097E000005C0040281D0020000000000000000078
:1097F0002DE9F8434FF0804633699B0703D4BDE859
:10980000F843FCF735BF00232022336182F311882F
:109810001E4C9846A14659F81C3F9A68706A218DE3
:1098200080B2471ABFB297421BD320251868114453
:1098300048452185A7EB0207C0F80490DA68E0618B
:10984000C3F80C8008BFC6F80C8088F3118818692B
:10985000904785F31188E3699A689742DED3218D9A
:10986000E4E7E2694A450AD091682085CF1B9760FA
:109870001B89022B2CBFC018023080B270630023FA
:1098800083F31188BDE8F843FCF7F2BEB01E002058
:109890003E4B10B55A691C68144004F47C425A616E
:1098A000620510D53A4AD2F8A83013B1D2F8AC000C
:1098B0009847202383F3118800213648FDF798FA52
:1098C000002383F31188230510D5314AD2F8B8302C
:1098D00013B1D2F8BC009847202383F311880021EC
:1098E0002D48FDF785FA002383F31188E00410D595
:1098F000274AD2F8C83013B1D2F8CC0098472023B9
:1099000083F3118800212548FDF772FA002383F3C1
:109910001188A10410D51E4AD2F8D83013B1D2F85C
:10992000DC009847202383F3118800211C48FDF7B1
:109930005FFA002383F31188620410D5144AD2F829
:10994000E83013B1D2F8EC009847202383F3118854
:1099500000211448FDF74CFA002383F311882304F7
:1099600010D50B4AD2F8F83013B1D2F8FC00984762
:10997000202383F3118800210B48FDF739FA0023D7
:1099800083F31188BDE81040FCF772BE000401406B
:10999000B01D0020501E0020601E0020701E002000
:1099A000801E0020901E0020A01E0020000000004D
:1099B000324B10B55A691C68144004F478725A612D
:1099C000A3060ED52E4A936D0BB1D06D9847202378
:1099D00083F3118800212B48FDF70AFA002383F353
:1099E000118860060ED5264A936E0BB1D06E98474B
:1099F000202383F3118800212348FDF7F9F9002380
:109A000083F3118821060ED51D4A936F0BB1D06FD9
:109A10009847202383F3118800211C48FDF7E8F9BB
:109A2000002383F31188E20510D5154AD2F8883057
:109A300013B1D2F88C009847202383F311880021BA
:109A40001348FDF7D5F9002383F31188A30510D53A
:109A50000B4AD2F8983013B1D2F89C0098472023D3
:109A600083F3118800210B48FDF7C2F9002383F32B
:109A70001188BDE81040FCF7FBBD00BF00040140A9
:109A8000B01D0020001E0020101E0020201E0020FF
:109A9000301E0020401E00200000000000000000DA
:109AA0000D4A08B5516913680B4003F01003536168
:109AB00073B10A4A936C0BB1D06C9847202383F39F
:109AC000118800210648FDF793F9002383F31188DC
:109AD000BDE80840FCF7CCBD00040140B01D0020EB
:109AE000F01D002000000000000000000000000049
:109AF0000D4A08B5516913680B4003F00803536120
:109B000073B10A4A936B0BB1D06B9847202383F350
:109B1000118800210648FDF76BF9002383F31188B3
:109B2000BDE80840FCF7A4BD00040140B01D0020C2
:109B3000E01D002000000000000000000000000008
:109B40000D4A08B5516913680B4003F004035361D3
:109B500073B10A4A936A0BB1D06A9847202383F302
:109B6000118800210648FDF743F9002383F311888B
:109B7000BDE80840FCF77CBD00040140B01D00209A
:109B8000D01D0020000000000000000000000000C8
:109B90000D4A08B5516913680B4003F00203536185
:109BA00073B10A4A93690BB1D0699847202383F3B4
:109BB000118800210648FDF71BF9002383F3118863
:109BC000BDE80840FCF754BD00040140B01D002072
:109BD000C01D002000000000000000000000000088
:109BE0000D4A08B5516913680B4003F00103536136
:109BF00073B10A4A93680BB1D0689847202383F366
:109C0000118800210548FDF7F3F8002383F311883C
:109C1000BDE80840FCF72CBD00040140B01D002049
:109C2000EFF30983203383F30988002383F311883A
:109C3000704700BF000000000000000000000000AE
:109C4000202383F31188FFF7ABBA00BF00000000A8
:109C5000FFF7F6BF00000000000000000000000059
:109C6000012130B400250D4A1068946903685A60D8
:109C700080F82010A1681360906184F8205000E003
:109C80001B689A689142FBD35A682146C4E90032A6
:109C900014605C6030BCFBF7D3BA00BFB01E00207C
:109CA000044B1A689B6992689B689A4200D8704777
:109CB000FFF7D6BFB01E002000000000000000002B
:109CC00038B5202383F31188154CA3680133002B8A
:109CD000A3601ADD013B002BA36006DBFFF7E0FF6A
:109CE0000020002383F3118838BD0E4A636895690C
:109CF0000520C5E900431D606C626560FEF7E8F968
:109D0000686A002383F3118838BD206803685C60AB
:109D10002360FCF7BDFE0022A3684262DAE700BFC1
:109D200008210020B01E00200000000000000000FC
:109D300038B501241D4B1E4D9A691E4891680023B9
:109D400021441D4A2C60FEF713F902231B4A1C4CC8
:109D500010602B60FFF7B4FF20681A49001BB0FAAF
:109D600080F04009FBF7ECFD00B138BDA068164952
:109D7000B0FA80F04009FBF7E3FD0028F5D103239A
:109D80002B60FFF79DFF20680E49001BB0FA80F0A2
:109D90004009FBF7D5FD0028E7D1A0680A49B0FAD1
:109DA00080F0BDE838404009FBF7CABDB01E002076
:109DB0003C28002028210020619100085428002020
:109DC00008210020E4F90008F4F900080000000070
:109DD00038B5202383F31188012200250B4C6FF046
:109DE0000101236804F118002275C4E902332561DA
:109DF000FCF7FEFF04F120006FF00101FCF7F8FF13
:109E0000FFF74EFF85F3118838BD00BF58180020BA
:109E1000FFF7DEBF000000000000000000000000AF
:109E2000FFF7F6BF00000000000000000000000087
:109E3000FFF7EEBF0000000000000000000000007F
:109E4000F8B507460E46202383F31188154C04F11C
:109E500018050BE02369D4E90012501AB3EBA00FE8
:109E60000DD131462846FEF713FB20B9237D002B88
:109E7000F0D06FF00100002383F31188F8BDA568CE
:109E80000133281DA06082422F60074898BFA1605F
:109E90002361FCF715FEFFF703FF0020002383F387
:109EA0001188F8BD58180020781800200000000024
:109EB000F8B507460E46202383F31188154C04F1AC
:109EC00018050BE02369D4E90021881AB3EBA00F31
:109ED0000DD131462846FEF7DBFA20B9237D002B51
:109EE000F0D06FF00100002383F31188F8BDE06823
:109EF00001330438824288BF081FE06007600648CB
:109F00002361FCF7DDFDFFF7CBFE0020002383F388
:109F10001188F8BD581800207818002000000000B3
:109F2000F8B507460E46202383F31188154CE51833
:109F300006E023696BB931462846FEF7A9FA20B935
:109F4000237D002BF5D06FF00100002383F31188EF
:109F5000F8BDE16860680A1D82420968E26028BFB6
:109F60002268396003F1FF33074828BFE2602361AC
:109F7000FCF7A6FDFFF794FE0020002383F3118871
:109F8000F8BD00BF58180020701800200000000025
:109F9000012370B54224404E404D82B033604FF0F3
:109FA000FF312046FFF74CFFB0FA80F02946400908
:109FB000FBF7C6FC013488B9462CF0D102230121FD
:109FC00058203360FFF73CFFA0F1FF30B0FA80F07B
:109FD00032494009FBF7B4FC044608B102B070BD39
:109FE000202585F311885820FCF77AFD84F3118829
:109FF000A0F1FF30B0FA80F028494009FBF7A0FC3F
:10A000000028EBD101215820FFF752FFA0F1FF30CB
:10A01000B0FA80F021494009FBF792FC0446002881
:10A02000DCD185F311885820FCF782FD84F3118878
:10A03000A0F1FF30B0FA80F018494009FBF780FC2E
:10A0400004460028CAD103233360FFF7C1FE04226F
:10A05000134B0DEB02001C7501213260FFF760FF0E
:10A06000A0F1FF30B0FA80F00C494009FBF768FC22
:10A0700004460028B2D185F3118801A8FCF780FDC1
:10A0800084F31188A0F1FF30B0FA80F00349400951
:10A09000FBF756FCA2E700BF3C280020A8EA000816
:10A0A0005818002000000000000000000000000020
:10A0B0002DE9F0474FF00108AE4F82B02026C7F8D7
:10A0C000008086F31188AC4CAC492069D4E90023A8
:10A0D0009B1AC0EBA300A0F10400B0FA80F0400985
:10A0E000FBF72EFC28B1002383F3118802B0BDE8F2
:10A0F000F087054680F3118802233B6086F31188C0
:10A10000236804F118006FF00101C4E902332561EE
:10A1100084F81480FCF76CFE04F120006FF001015C
:10A12000FCF766FE85F3118886F31188D4E90023D5
:10A1300020699B1AC0EBA300A0F10400B0FA80F0E4
:10A140008F494009FBF7FCFB804620B185F311885D
:10A1500002B0BDE8F08780F3118886F3118820698A
:10A160008849B0FA80F04009FBF7EAFB054610B1D8
:10A1700088F31188BAE780F3118886F31188206884
:10A18000A3688149C01AB0FA80F04009FBF7D8FBF8
:10A1900080460028DAD180F3118886F31188206880
:10A1A000E3687A49C01AB0FA80F04009FBF7C8FBAF
:10A1B0000028DDD180F31188032381464225DFF892
:10A1C000D0A120753B6086F311882846FCF788FCF7
:10A1D00089F31188B0FA80F051464009FBF7B0FBD3
:10A1E00001358046002881D1452DECD186F31188B8
:10A1F0004120FCF79DFC88F31188B0FA80F0644997
:10A200004009FBF79DFB054600287FF46FAF4FF038
:10A210000408C7F8008086F311882269D4E9001386
:10A220005B1AB2EBA30F0CBF012000205949FBF7CA
:10A2300087FB8146002889D180F3118886F3118835
:10A2400020695549A0F10400B0FA80F04009FBF7FD
:10A2500077FB054610B189F3118847E780F3118831
:10A2600086F31188D4E90230C61A704270414B4916
:10A27000FBF766FB00287FF469AF80F311880523A4
:10A28000454606464FF02008DFF804913B6088F30E
:10A29000118801A8FCF774FC86F31188B0FA80F0ED
:10A2A00049464009FBF74CFB00287FF41FAF9DF89F
:10A2B0000400FBF7E5FB013DE9D139493948FBF7DB
:10A2C00057FC00287FF412AF06234FF0FF314620E1
:10A2D0003B60FFF7B5FDB0FA80F02D494009FBF770
:10A2E0002FFB00287FF402AF4FF0FF3101A8FFF7EA
:10A2F00017FEB0FA80F026494009FBF721FB002841
:10A300007FF4F4AE07233B6088F311882369D4E916
:10A310000012521AC3EBA203191F484248411849C0
:10A32000FBF70EFB00287FF411AF85F3118888F34B
:10A33000118820691349B0FA80F04009FBF700FB4F
:10A3400000287FF403AF85F311882068A3680E49C5
:10A35000C21A50425041FBF7F3FA00287FF4C6AE10
:10A360002068E3680949C31A58425841FBF7E8FAE4
:10A37000BCE600BF3C28002058180020E0E9000897
:10A38000ECE90008F8E9000804EA000828EA0008F7
:10A39000A8EA00084CEA000858EA000864EA000845
:10A3A0007CEA000890EA00080000000000000000BD
:10A3B00001232DE9F041B34F82B020263B6086F3A4
:10A3C0001188B14CB1492069D4E900239B1AC0EB34
:10A3D000A300A0F10400B0FA80F04009FBF7B0FA46
:10A3E00028B1002383F3118802B0BDE8F08105464F
:10A3F00080F3118802233B60FFF7EAFC86F31188A3
:10A40000D4E9002320699B1AC0EBA300A0F104004B
:10A41000B0FA80F09E494009FBF792FA804620B1DD
:10A4200085F3118802B0BDE8F08180F3118886F3CE
:10A43000118820699749B0FA80F04009FBF780FA4B
:10A44000054610B188F31188CEE780F3118886F3B2
:10A4500011882068A3689049C01AB0FA80F04009BA
:10A46000FBF76EFA80460028DAD180F3118886F374
:10A4700011882068E3688949C01AB0FA80F0400961
:10A48000FBF75EFA0028DDD180F3118803234FF03B
:10A49000FF313B60FFF7D4FC851C14BF0020012076
:10A4A0007F49FBF74DFA00289ED14FF0FF31FFF7AF
:10A4B000FFFC821C14BF002001207949FBF740FA01
:10A4C000002891D14FF0FF3101A8FFF729FD831C2F
:10A4D00014BF002001207249FBF732FA002883D113
:10A4E000042342256F4E20753B604FF0FF31284614
:10A4F000FFF7A6FCB0FA80F031464009FBF720FADE
:10A50000013500287FF470AF452DEED14FF0FF31BB
:10A510004120FFF7CDFCB0FA80F062494009FBF71B
:10A520000FFA054600287FF45FAF052320263B6025
:10A5300086F311882269D4E900135B1AB2EBA30FEA
:10A540000CBF012000205849FBF7FAF9804600288B
:10A550007FF466AF80F3118886F311882069534930
:10A56000A0F1040CDCF1000040EB0C00FBF7E8F973
:10A57000054600287FF466AF80F3118886F31188C2
:10A58000D4E90230C61A704270414949FBF7D8F944
:10A5900000287FF445AF80F3118806230425414E3F
:10A5A0003B604FF0FF3101A8FFF7BAFCB0FA80F032
:10A5B00031464009FBF7C4F900287FF415AF9DF838
:10A5C0000400FBF75DFA013DEBD13A493A48FBF74D
:10A5D000CFFA00287FF408AF07234FF0FF31462061
:10A5E0003B60FFF72DFCB0FA80F02E494009FBF7E5
:10A5F000A7F900287FF4F8AE4FF0FF3101A8FFF76C
:10A600008FFCB0FA80F027494009FBF799F9002840
:10A610007FF4EAAE082320263B6086F31188236985
:10A62000D4E90012521AC3EBA203191F4842484151
:10A630001749FBF785F900287FF4F2AE85F31188FE
:10A6400086F3118820691349B0FA80F04009FBF7BE
:10A6500077F900287FF4E4AE85F311882068A368B9
:10A660000D49C21A50425041FBF76AF900287FF4A5
:10A67000BBAE2068E3680949C31A58425841FBF74A
:10A680005FF9B1E63C28002058180020E0E90008F6
:10A69000ECE90008F8E9000804EA000828EA0008E4
:10A6A000BCE90008A8EA00084CEA000858EA0008DB
:10A6B00064EA00087CEA000890EA00080000000054
:10A6C0002DE9F047394D0123A94604264FF0200813
:10A6D0000027DFF8E8A0364CCAF8003088F311886C
:10A6E000EB6848462360EC60FCF76AFBFFF7D8FA9A
:10A6F00087F311882B69013E1C44EFD10223042407
:10A700002C4ECAF800300020FDF7BAFD003018BF0B
:10A7100001203146FBF714F9002845D1013CF2D164
:10A720000323CAF80030FDF7ABFDB0FA80F02249F0
:10A730004009FBF705F9B8BB04234FF020091C4E74
:10A74000DFF86880CAF8003006F11007324689F356
:10A750001188EB68404646F8043BEA60FCF730FBA2
:10A76000FFF79EFA84F31188B742EFD10523042442
:10A77000104DCAF800300020FDF782FD003018BFF0
:10A7800001202946FBF7DCF870B9013CF3D1062320
:10A79000CAF80030FDF774FDBDE8F047B0FA80F06C
:10A7A00005494009FBF7CCB8BDE8F0871418002034
:10A7B000F8200020D0EA0008DCEA00083C2800204D
:10A7C00038B5202585F3118800210B48FCF730FAB5
:10A7D0000024FFF765FA84F311886420FEF770F80F
:10A7E00085F3118805482146FCF722FAFFF758FA4D
:10A7F00084F3118838BD00BF0C1800201018002009
:10A8000010B504466420FEF75BF8202383F311881B
:10A8100001212046FCF7F4F9FFF742FA002383F305
:10A82000118810BD000000000000000000000000C2
:10A8300010B54FF49670FEF743F8202383F3118888
:10A84000064C2046FEF77CFB2046FCF791FAFFF70A
:10A8500027FA002383F3118810BD00BF4818002099
:10A8600008B56420FEF72CF8202383F311880448F0
:10A87000FCF7A6FAFFF714FA002383F3118808BD4A
:10A88000082100200000000000000000000000007F
:10A8900008B5202282F311888368002B05DDFFF7BD
:10A8A000FFF9002383F3118808BDFCF789FAFFF74D
:10A8B000F7F9002383F3118808BD00BF00000000F2
:10A8C00010B52023044683F31188094A13682BB17D
:10A8D0000021184659621160FCF7DAF8FFF7E0F939
:10A8E000002383F311882078BDE81040FBF7C8B837
:10A8F00068280020000000000000000000000000A8
:10A90000174B70B59D69202383F311880468C368D1
:10A910008442AB631DD0E96B4BB11A68934203D0FC
:10A920009268914238BF1146DB68002BF5D103468F
:10A930002268A66B2046A9601A605360C3E90246EC
:10A94000A363FCF7A5F8FFF7ABF9002383F31188A5
:10A9500070BD0023A360002383F3118870BD00BF86
:10A96000B01E0020000000000000000000000000F9
:10A970002DE9F047384D01F10708002818BF0546BA
:10A9800005F10C0738460E464FEAD808FEF750FB93
:10A9900005F1040CDCF8003003F10F0020F0070093
:10A9A000A0F1080E03F1080A73B1D3F8049009F17D
:10A9B000010203EBC202964504D2111AC910884560
:10A9C000044613D99C46E5E73846FFF799FF2C6803
:10A9D0004CB1082208F10100C0001146A04704460E
:10A9E00008B140E902562046BDE8F087734519D307
:10A9F000C84518682AD0544608F1010803EBC8017D
:10AA000043F838009E4601F10803D31ADB104B606F
:10AA1000CCF800103846CEE90056FFF771FF20460B
:10AA2000BDE8F087AEEB0A0A4FEAEA0288455A60B1
:10AA3000F0D26FEA0802186808F1010811440EEB21
:10AA4000C80251604EF838001A60E3E7CCF8000005
:10AA500054469E46DEE700BF48200020000000006C
:10AA6000F8B50C680D46A1420646174603D10DE025
:10AA70002468A5420AD008223146A01803F0E0FC61
:10AA80000028F5D114B104462046F8BD394600200F
:10AA9000FFF76EFF044648B108223146104403F028
:10AAA00019FD01222B68C4E900322C602046F8BD54
:10AAB00070B586B016461D460C46FFF759FFD8B153
:10AAC0000A9B044404930B9B02940593CDE9006018
:10AAD0000395202383F311886846FBF761FF012368
